{
	"RideShare.sol": {
		"Rideshare": {
			"abi": [
				{
					"inputs": [],
					"stateMutability": "payable",
					"type": "constructor"
				},
				{
					"anonymous": false,
					"inputs": [
						{
							"indexed": false,
							"internalType": "uint256",
							"name": "rideId",
							"type": "uint256"
						},
						{
							"indexed": true,
							"internalType": "address",
							"name": "rider",
							"type": "address"
						},
						{
							"indexed": true,
							"internalType": "address",
							"name": "driver",
							"type": "address"
						}
					],
					"name": "NewRide",
					"type": "event"
				},
				{
					"inputs": [
						{
							"internalType": "uint256",
							"name": "_rideId",
							"type": "uint256"
						}
					],
					"name": "acceptRide",
					"outputs": [],
					"stateMutability": "nonpayable",
					"type": "function"
				},
				{
					"inputs": [
						{
							"internalType": "uint256",
							"name": "_rideId",
							"type": "uint256"
						}
					],
					"name": "cancelRide",
					"outputs": [],
					"stateMutability": "nonpayable",
					"type": "function"
				},
				{
					"inputs": [
						{
							"internalType": "address payable",
							"name": "_driver",
							"type": "address"
						},
						{
							"internalType": "uint256",
							"name": "_distance",
							"type": "uint256"
						}
					],
					"name": "requestRide",
					"outputs": [],
					"stateMutability": "payable",
					"type": "function"
				},
				{
					"inputs": [
						{
							"internalType": "uint256",
							"name": "_rideId",
							"type": "uint256"
						}
					],
					"name": "rideCompleted",
					"outputs": [],
					"stateMutability": "nonpayable",
					"type": "function"
				},
				{
					"inputs": [],
					"name": "rideId",
					"outputs": [
						{
							"internalType": "uint256",
							"name": "",
							"type": "uint256"
						}
					],
					"stateMutability": "view",
					"type": "function"
				},
				{
					"inputs": [
						{
							"internalType": "uint256",
							"name": "",
							"type": "uint256"
						}
					],
					"name": "rides",
					"outputs": [
						{
							"internalType": "address payable",
							"name": "rider",
							"type": "address"
						},
						{
							"internalType": "address payable",
							"name": "driver",
							"type": "address"
						},
						{
							"internalType": "uint256",
							"name": "price",
							"type": "uint256"
						},
						{
							"internalType": "uint256",
							"name": "distance",
							"type": "uint256"
						},
						{
							"internalType": "uint256",
							"name": "cashBack",
							"type": "uint256"
						},
						{
							"internalType": "bool",
							"name": "isCompleted",
							"type": "bool"
						}
					],
					"stateMutability": "view",
					"type": "function"
				}
			],
			"devdoc": {
				"kind": "dev",
				"methods": {},
				"version": 1
			},
			"evm": {
				"assembly": "    /* \"RideShare.sol\":60:2031  contract Rideshare {... */\n  mstore(0x40, 0x80)\n    /* \"RideShare.sol\":532:544  0.0001 ether */\n  0x5af3107a4000\n    /* \"RideShare.sol\":519:528  msg.value */\n  callvalue\n    /* \"RideShare.sol\":519:544  msg.value >= 0.0001 ether */\n  lt\n  iszero\n    /* \"RideShare.sol\":511:588  require(msg.value >= 0.0001 ether, \"Minimum deployment cost is 0.0001 ether\") */\n  tag_3\n  jumpi\n  mload(0x40)\n  0x08c379a000000000000000000000000000000000000000000000000000000000\n  dup2\n  mstore\n  0x04\n  add\n  tag_4\n  swap1\n  tag_5\n  jump\t// in\ntag_4:\n  mload(0x40)\n  dup1\n  swap2\n  sub\n  swap1\n  revert\ntag_3:\n    /* \"RideShare.sol\":60:2031  contract Rideshare {... */\n  jump(tag_6)\n    /* \"#utility.yul\":7:176   */\ntag_7:\n    /* \"#utility.yul\":91:102   */\n  0x00\n    /* \"#utility.yul\":125:131   */\n  dup3\n    /* \"#utility.yul\":120:123   */\n  dup3\n    /* \"#utility.yul\":113:132   */\n  mstore\n    /* \"#utility.yul\":165:169   */\n  0x20\n    /* \"#utility.yul\":160:163   */\n  dup3\n    /* \"#utility.yul\":156:170   */\n  add\n    /* \"#utility.yul\":141:170   */\n  swap1\n  pop\n    /* \"#utility.yul\":7:176   */\n  swap3\n  swap2\n  pop\n  pop\n  jump\t// out\n    /* \"#utility.yul\":182:408   */\ntag_8:\n    /* \"#utility.yul\":322:356   */\n  0x4d696e696d756d206465706c6f796d656e7420636f737420697320302e303030\n    /* \"#utility.yul\":318:319   */\n  0x00\n    /* \"#utility.yul\":310:316   */\n  dup3\n    /* \"#utility.yul\":306:320   */\n  add\n    /* \"#utility.yul\":299:357   */\n  mstore\n    /* \"#utility.yul\":391:400   */\n  0x3120657468657200000000000000000000000000000000000000000000000000\n    /* \"#utility.yul\":386:388   */\n  0x20\n    /* \"#utility.yul\":378:384   */\n  dup3\n    /* \"#utility.yul\":374:389   */\n  add\n    /* \"#utility.yul\":367:401   */\n  mstore\n    /* \"#utility.yul\":182:408   */\n  pop\n  jump\t// out\n    /* \"#utility.yul\":414:780   */\ntag_9:\n    /* \"#utility.yul\":556:559   */\n  0x00\n    /* \"#utility.yul\":577:644   */\n  tag_14\n    /* \"#utility.yul\":641:643   */\n  0x27\n    /* \"#utility.yul\":636:639   */\n  dup4\n    /* \"#utility.yul\":577:644   */\n  tag_7\n  jump\t// in\ntag_14:\n    /* \"#utility.yul\":570:644   */\n  swap2\n  pop\n    /* \"#utility.yul\":653:746   */\n  tag_15\n    /* \"#utility.yul\":742:745   */\n  dup3\n    /* \"#utility.yul\":653:746   */\n  tag_8\n  jump\t// in\ntag_15:\n    /* \"#utility.yul\":771:773   */\n  0x40\n    /* \"#utility.yul\":766:769   */\n  dup3\n    /* \"#utility.yul\":762:774   */\n  add\n    /* \"#utility.yul\":755:774   */\n  swap1\n  pop\n    /* \"#utility.yul\":414:780   */\n  swap2\n  swap1\n  pop\n  jump\t// out\n    /* \"#utility.yul\":786:1205   */\ntag_5:\n    /* \"#utility.yul\":952:956   */\n  0x00\n    /* \"#utility.yul\":990:992   */\n  0x20\n    /* \"#utility.yul\":979:988   */\n  dup3\n    /* \"#utility.yul\":975:993   */\n  add\n    /* \"#utility.yul\":967:993   */\n  swap1\n  pop\n    /* \"#utility.yul\":1039:1048   */\n  dup2\n    /* \"#utility.yul\":1033:1037   */\n  dup2\n    /* \"#utility.yul\":1029:1049   */\n  sub\n    /* \"#utility.yul\":1025:1026   */\n  0x00\n    /* \"#utility.yul\":1014:1023   */\n  dup4\n    /* \"#utility.yul\":1010:1027   */\n  add\n    /* \"#utility.yul\":1003:1050   */\n  mstore\n    /* \"#utility.yul\":1067:1198   */\n  tag_17\n    /* \"#utility.yul\":1193:1197   */\n  dup2\n    /* \"#utility.yul\":1067:1198   */\n  tag_9\n  jump\t// in\ntag_17:\n    /* \"#utility.yul\":1059:1198   */\n  swap1\n  pop\n    /* \"#utility.yul\":786:1205   */\n  swap2\n  swap1\n  pop\n  jump\t// out\n    /* \"RideShare.sol\":60:2031  contract Rideshare {... */\ntag_6:\n  dataSize(sub_0)\n  dup1\n  dataOffset(sub_0)\n  0x00\n  codecopy\n  0x00\n  return\nstop\n\nsub_0: assembly {\n        /* \"RideShare.sol\":60:2031  contract Rideshare {... */\n      mstore(0x40, 0x80)\n      jumpi(tag_1, lt(calldatasize, 0x04))\n      shr(0xe0, calldataload(0x00))\n      dup1\n      0x11938562\n      eq\n      tag_2\n      jumpi\n      dup1\n      0x5205f112\n      eq\n      tag_3\n      jumpi\n      dup1\n      0xa6f07b29\n      eq\n      tag_4\n      jumpi\n      dup1\n      0xaa341cf1\n      eq\n      tag_5\n      jumpi\n      dup1\n      0xac5558e5\n      eq\n      tag_6\n      jumpi\n      dup1\n      0xc51562cb\n      eq\n      tag_7\n      jumpi\n    tag_1:\n      0x00\n      dup1\n      revert\n        /* \"RideShare.sol\":1695:2028  function rideCompleted(uint256 _rideId) external {... */\n    tag_2:\n      callvalue\n      dup1\n      iszero\n      tag_8\n      jumpi\n      0x00\n      dup1\n      revert\n    tag_8:\n      pop\n      tag_9\n      0x04\n      dup1\n      calldatasize\n      sub\n      dup2\n      add\n      swap1\n      tag_10\n      swap2\n      swap1\n      tag_11\n      jump\t// in\n    tag_10:\n      tag_12\n      jump\t// in\n    tag_9:\n      stop\n        /* \"RideShare.sol\":347:384  mapping(uint256 => Ride) public rides */\n    tag_3:\n      callvalue\n      dup1\n      iszero\n      tag_13\n      jumpi\n      0x00\n      dup1\n      revert\n    tag_13:\n      pop\n      tag_14\n      0x04\n      dup1\n      calldatasize\n      sub\n      dup2\n      add\n      swap1\n      tag_15\n      swap2\n      swap1\n      tag_11\n      jump\t// in\n    tag_15:\n      tag_16\n      jump\t// in\n    tag_14:\n      mload(0x40)\n      tag_17\n      swap7\n      swap6\n      swap5\n      swap4\n      swap3\n      swap2\n      swap1\n      tag_18\n      jump\t// in\n    tag_17:\n      mload(0x40)\n      dup1\n      swap2\n      sub\n      swap1\n      return\n        /* \"RideShare.sol\":1395:1687  function cancelRide(uint256 _rideId) external {... */\n    tag_4:\n      callvalue\n      dup1\n      iszero\n      tag_19\n      jumpi\n      0x00\n      dup1\n      revert\n    tag_19:\n      pop\n      tag_20\n      0x04\n      dup1\n      calldatasize\n      sub\n      dup2\n      add\n      swap1\n      tag_21\n      swap2\n      swap1\n      tag_11\n      jump\t// in\n    tag_21:\n      tag_22\n      jump\t// in\n    tag_20:\n      stop\n        /* \"RideShare.sol\":637:1091  function requestRide(address payable _driver, uint256 _distance) external payable {... */\n    tag_5:\n      tag_23\n      0x04\n      dup1\n      calldatasize\n      sub\n      dup2\n      add\n      swap1\n      tag_24\n      swap2\n      swap1\n      tag_25\n      jump\t// in\n    tag_24:\n      tag_26\n      jump\t// in\n    tag_23:\n      stop\n        /* \"RideShare.sol\":86:107  uint256 public rideId */\n    tag_6:\n      callvalue\n      dup1\n      iszero\n      tag_27\n      jumpi\n      0x00\n      dup1\n      revert\n    tag_27:\n      pop\n      tag_28\n      tag_29\n      jump\t// in\n    tag_28:\n      mload(0x40)\n      tag_30\n      swap2\n      swap1\n      tag_31\n      jump\t// in\n    tag_30:\n      mload(0x40)\n      dup1\n      swap2\n      sub\n      swap1\n      return\n        /* \"RideShare.sol\":1143:1387  function acceptRide(uint256 _rideId) external {... */\n    tag_7:\n      callvalue\n      dup1\n      iszero\n      tag_32\n      jumpi\n      0x00\n      dup1\n      revert\n    tag_32:\n      pop\n      tag_33\n      0x04\n      dup1\n      calldatasize\n      sub\n      dup2\n      add\n      swap1\n      tag_34\n      swap2\n      swap1\n      tag_11\n      jump\t// in\n    tag_34:\n      tag_35\n      jump\t// in\n    tag_33:\n      stop\n        /* \"RideShare.sol\":1695:2028  function rideCompleted(uint256 _rideId) external {... */\n    tag_12:\n        /* \"RideShare.sol\":1755:1772  Ride storage ride */\n      0x00\n        /* \"RideShare.sol\":1775:1780  rides */\n      0x01\n        /* \"RideShare.sol\":1775:1789  rides[_rideId] */\n      0x00\n        /* \"RideShare.sol\":1781:1788  _rideId */\n      dup4\n        /* \"RideShare.sol\":1775:1789  rides[_rideId] */\n      dup2\n      mstore\n      0x20\n      add\n      swap1\n      dup2\n      mstore\n      0x20\n      add\n      0x00\n      keccak256\n        /* \"RideShare.sol\":1755:1789  Ride storage ride = rides[_rideId] */\n      swap1\n      pop\n        /* \"RideShare.sol\":1822:1826  ride */\n      dup1\n        /* \"RideShare.sol\":1822:1832  ride.rider */\n      0x00\n      add\n      0x00\n      swap1\n      sload\n      swap1\n      0x0100\n      exp\n      swap1\n      div\n      0xffffffffffffffffffffffffffffffffffffffff\n      and\n        /* \"RideShare.sol\":1808:1832  msg.sender == ride.rider */\n      0xffffffffffffffffffffffffffffffffffffffff\n      and\n        /* \"RideShare.sol\":1808:1818  msg.sender */\n      caller\n        /* \"RideShare.sol\":1808:1832  msg.sender == ride.rider */\n      0xffffffffffffffffffffffffffffffffffffffff\n      and\n      eq\n        /* \"RideShare.sol\":1800:1869  require(msg.sender == ride.rider, \"Only rider can mark as completed\") */\n      tag_37\n      jumpi\n      mload(0x40)\n      0x08c379a000000000000000000000000000000000000000000000000000000000\n      dup2\n      mstore\n      0x04\n      add\n      tag_38\n      swap1\n      tag_39\n      jump\t// in\n    tag_38:\n      mload(0x40)\n      dup1\n      swap2\n      sub\n      swap1\n      revert\n    tag_37:\n        /* \"RideShare.sol\":1889:1893  ride */\n      dup1\n        /* \"RideShare.sol\":1889:1905  ride.isCompleted */\n      0x05\n      add\n      0x00\n      swap1\n      sload\n      swap1\n      0x0100\n      exp\n      swap1\n      div\n      0xff\n      and\n        /* \"RideShare.sol\":1888:1905  !ride.isCompleted */\n      iszero\n        /* \"RideShare.sol\":1880:1932  require(!ride.isCompleted, \"Ride already completed\") */\n      tag_40\n      jumpi\n      mload(0x40)\n      0x08c379a000000000000000000000000000000000000000000000000000000000\n      dup2\n      mstore\n      0x04\n      add\n      tag_41\n      swap1\n      tag_42\n      jump\t// in\n    tag_41:\n      mload(0x40)\n      dup1\n      swap2\n      sub\n      swap1\n      revert\n    tag_40:\n        /* \"RideShare.sol\":1964:1968  true */\n      0x01\n        /* \"RideShare.sol\":1945:1949  ride */\n      dup2\n        /* \"RideShare.sol\":1945:1961  ride.isCompleted */\n      0x05\n      add\n      0x00\n        /* \"RideShare.sol\":1945:1968  ride.isCompleted = true */\n      0x0100\n      exp\n      dup2\n      sload\n      dup2\n      0xff\n      mul\n      not\n      and\n      swap1\n      dup4\n      iszero\n      iszero\n      mul\n      or\n      swap1\n      sstore\n      pop\n        /* \"RideShare.sol\":1987:1991  ride */\n      dup1\n        /* \"RideShare.sol\":1987:1998  ride.driver */\n      0x01\n      add\n      0x00\n      swap1\n      sload\n      swap1\n      0x0100\n      exp\n      swap1\n      div\n      0xffffffffffffffffffffffffffffffffffffffff\n      and\n        /* \"RideShare.sol\":1979:2008  payable(ride.driver).transfer */\n      0xffffffffffffffffffffffffffffffffffffffff\n      and\n        /* \"RideShare.sol\":1979:2020  payable(ride.driver).transfer(ride.price) */\n      0x08fc\n        /* \"RideShare.sol\":2009:2013  ride */\n      dup3\n        /* \"RideShare.sol\":2009:2019  ride.price */\n      0x02\n      add\n      sload\n        /* \"RideShare.sol\":1979:2020  payable(ride.driver).transfer(ride.price) */\n      swap1\n      dup2\n      iszero\n      mul\n      swap1\n      mload(0x40)\n      0x00\n      mload(0x40)\n      dup1\n      dup4\n      sub\n      dup2\n      dup6\n      dup9\n      dup9\n      call\n      swap4\n      pop\n      pop\n      pop\n      pop\n      iszero\n      dup1\n      iszero\n      tag_44\n      jumpi\n      returndatasize\n      0x00\n      dup1\n      returndatacopy\n      revert(0x00, returndatasize)\n    tag_44:\n      pop\n        /* \"RideShare.sol\":1744:2028  {... */\n      pop\n        /* \"RideShare.sol\":1695:2028  function rideCompleted(uint256 _rideId) external {... */\n      pop\n      jump\t// out\n        /* \"RideShare.sol\":347:384  mapping(uint256 => Ride) public rides */\n    tag_16:\n      mstore(0x20, 0x01)\n      dup1\n      0x00\n      mstore\n      keccak256(0x00, 0x40)\n      0x00\n      swap2\n      pop\n      swap1\n      pop\n      dup1\n      0x00\n      add\n      0x00\n      swap1\n      sload\n      swap1\n      0x0100\n      exp\n      swap1\n      div\n      0xffffffffffffffffffffffffffffffffffffffff\n      and\n      swap1\n      dup1\n      0x01\n      add\n      0x00\n      swap1\n      sload\n      swap1\n      0x0100\n      exp\n      swap1\n      div\n      0xffffffffffffffffffffffffffffffffffffffff\n      and\n      swap1\n      dup1\n      0x02\n      add\n      sload\n      swap1\n      dup1\n      0x03\n      add\n      sload\n      swap1\n      dup1\n      0x04\n      add\n      sload\n      swap1\n      dup1\n      0x05\n      add\n      0x00\n      swap1\n      sload\n      swap1\n      0x0100\n      exp\n      swap1\n      div\n      0xff\n      and\n      swap1\n      pop\n      dup7\n      jump\t// out\n        /* \"RideShare.sol\":1395:1687  function cancelRide(uint256 _rideId) external {... */\n    tag_22:\n        /* \"RideShare.sol\":1452:1469  Ride storage ride */\n      0x00\n        /* \"RideShare.sol\":1472:1477  rides */\n      0x01\n        /* \"RideShare.sol\":1472:1486  rides[_rideId] */\n      0x00\n        /* \"RideShare.sol\":1478:1485  _rideId */\n      dup4\n        /* \"RideShare.sol\":1472:1486  rides[_rideId] */\n      dup2\n      mstore\n      0x20\n      add\n      swap1\n      dup2\n      mstore\n      0x20\n      add\n      0x00\n      keccak256\n        /* \"RideShare.sol\":1452:1486  Ride storage ride = rides[_rideId] */\n      swap1\n      pop\n        /* \"RideShare.sol\":1519:1523  ride */\n      dup1\n        /* \"RideShare.sol\":1519:1529  ride.rider */\n      0x00\n      add\n      0x00\n      swap1\n      sload\n      swap1\n      0x0100\n      exp\n      swap1\n      div\n      0xffffffffffffffffffffffffffffffffffffffff\n      and\n        /* \"RideShare.sol\":1505:1529  msg.sender == ride.rider */\n      0xffffffffffffffffffffffffffffffffffffffff\n      and\n        /* \"RideShare.sol\":1505:1515  msg.sender */\n      caller\n        /* \"RideShare.sol\":1505:1529  msg.sender == ride.rider */\n      0xffffffffffffffffffffffffffffffffffffffff\n      and\n      eq\n        /* \"RideShare.sol\":1505:1558  msg.sender == ride.rider || msg.sender == ride.driver */\n      dup1\n      tag_46\n      jumpi\n      pop\n        /* \"RideShare.sol\":1547:1551  ride */\n      dup1\n        /* \"RideShare.sol\":1547:1558  ride.driver */\n      0x01\n      add\n      0x00\n      swap1\n      sload\n      swap1\n      0x0100\n      exp\n      swap1\n      div\n      0xffffffffffffffffffffffffffffffffffffffff\n      and\n        /* \"RideShare.sol\":1533:1558  msg.sender == ride.driver */\n      0xffffffffffffffffffffffffffffffffffffffff\n      and\n        /* \"RideShare.sol\":1533:1543  msg.sender */\n      caller\n        /* \"RideShare.sol\":1533:1558  msg.sender == ride.driver */\n      0xffffffffffffffffffffffffffffffffffffffff\n      and\n      eq\n        /* \"RideShare.sol\":1505:1558  msg.sender == ride.rider || msg.sender == ride.driver */\n    tag_46:\n        /* \"RideShare.sol\":1497:1594  require(msg.sender == ride.rider || msg.sender == ride.driver, \"Only rider or driver can cancel\") */\n      tag_47\n      jumpi\n      mload(0x40)\n      0x08c379a000000000000000000000000000000000000000000000000000000000\n      dup2\n      mstore\n      0x04\n      add\n      tag_48\n      swap1\n      tag_49\n      jump\t// in\n    tag_48:\n      mload(0x40)\n      dup1\n      swap2\n      sub\n      swap1\n      revert\n    tag_47:\n        /* \"RideShare.sol\":1615:1619  ride */\n      dup1\n        /* \"RideShare.sol\":1615:1625  ride.rider */\n      0x00\n      add\n      0x00\n      swap1\n      sload\n      swap1\n      0x0100\n      exp\n      swap1\n      div\n      0xffffffffffffffffffffffffffffffffffffffff\n      and\n        /* \"RideShare.sol\":1607:1635  payable(ride.rider).transfer */\n      0xffffffffffffffffffffffffffffffffffffffff\n      and\n        /* \"RideShare.sol\":1607:1647  payable(ride.rider).transfer(ride.price) */\n      0x08fc\n        /* \"RideShare.sol\":1636:1640  ride */\n      dup3\n        /* \"RideShare.sol\":1636:1646  ride.price */\n      0x02\n      add\n      sload\n        /* \"RideShare.sol\":1607:1647  payable(ride.rider).transfer(ride.price) */\n      swap1\n      dup2\n      iszero\n      mul\n      swap1\n      mload(0x40)\n      0x00\n      mload(0x40)\n      dup1\n      dup4\n      sub\n      dup2\n      dup6\n      dup9\n      dup9\n      call\n      swap4\n      pop\n      pop\n      pop\n      pop\n      iszero\n      dup1\n      iszero\n      tag_51\n      jumpi\n      returndatasize\n      0x00\n      dup1\n      returndatacopy\n      revert(0x00, returndatasize)\n    tag_51:\n      pop\n        /* \"RideShare.sol\":1665:1670  rides */\n      0x01\n        /* \"RideShare.sol\":1665:1679  rides[_rideId] */\n      0x00\n        /* \"RideShare.sol\":1671:1678  _rideId */\n      dup4\n        /* \"RideShare.sol\":1665:1679  rides[_rideId] */\n      dup2\n      mstore\n      0x20\n      add\n      swap1\n      dup2\n      mstore\n      0x20\n      add\n      0x00\n      keccak256\n      0x00\n        /* \"RideShare.sol\":1658:1679  delete rides[_rideId] */\n      dup1\n      dup3\n      add\n      exp(0x0100, 0x00)\n      dup2\n      sload\n      swap1\n      0xffffffffffffffffffffffffffffffffffffffff\n      mul\n      not\n      and\n      swap1\n      sstore\n      0x01\n      dup3\n      add\n      exp(0x0100, 0x00)\n      dup2\n      sload\n      swap1\n      0xffffffffffffffffffffffffffffffffffffffff\n      mul\n      not\n      and\n      swap1\n      sstore\n      0x02\n      dup3\n      add\n      0x00\n      swap1\n      sstore\n      0x03\n      dup3\n      add\n      0x00\n      swap1\n      sstore\n      0x04\n      dup3\n      add\n      0x00\n      swap1\n      sstore\n      0x05\n      dup3\n      add\n      exp(0x0100, 0x00)\n      dup2\n      sload\n      swap1\n      0xff\n      mul\n      not\n      and\n      swap1\n      sstore\n      pop\n      pop\n        /* \"RideShare.sol\":1441:1687  {... */\n      pop\n        /* \"RideShare.sol\":1395:1687  function cancelRide(uint256 _rideId) external {... */\n      pop\n      jump\t// out\n        /* \"RideShare.sol\":637:1091  function requestRide(address payable _driver, uint256 _distance) external payable {... */\n    tag_26:\n        /* \"RideShare.sol\":763:774  0.001 ether */\n      0x038d7ea4c68000\n        /* \"RideShare.sol\":751:760  _distance */\n      dup2\n        /* \"RideShare.sol\":751:774  _distance * 0.001 ether */\n      tag_53\n      swap2\n      swap1\n      tag_54\n      jump\t// in\n    tag_53:\n        /* \"RideShare.sol\":738:747  msg.value */\n      callvalue\n        /* \"RideShare.sol\":738:774  msg.value >= _distance * 0.001 ether */\n      lt\n      iszero\n        /* \"RideShare.sol\":730:806  require(msg.value >= _distance * 0.001 ether, \"Insufficient funds for ride\") */\n      tag_55\n      jumpi\n      mload(0x40)\n      0x08c379a000000000000000000000000000000000000000000000000000000000\n      dup2\n      mstore\n      0x04\n      add\n      tag_56\n      swap1\n      tag_57\n      jump\t// in\n    tag_56:\n      mload(0x40)\n      dup1\n      swap2\n      sub\n      swap1\n      revert\n    tag_55:\n        /* \"RideShare.sol\":819:833  uint256 _price */\n      0x00\n        /* \"RideShare.sol\":836:845  msg.value */\n      callvalue\n        /* \"RideShare.sol\":819:845  uint256 _price = msg.value */\n      swap1\n      pop\n        /* \"RideShare.sol\":856:873  uint256 _cashBack */\n      0x00\n        /* \"RideShare.sol\":898:909  0.001 ether */\n      0x038d7ea4c68000\n        /* \"RideShare.sol\":886:895  _distance */\n      dup4\n        /* \"RideShare.sol\":886:909  _distance * 0.001 ether */\n      tag_58\n      swap2\n      swap1\n      tag_54\n      jump\t// in\n    tag_58:\n        /* \"RideShare.sol\":876:882  _price */\n      dup3\n        /* \"RideShare.sol\":876:910  _price - (_distance * 0.001 ether) */\n      tag_59\n      swap2\n      swap1\n      tag_60\n      jump\t// in\n    tag_59:\n        /* \"RideShare.sol\":856:910  uint256 _cashBack = _price - (_distance * 0.001 ether) */\n      swap1\n      pop\n        /* \"RideShare.sol\":939:1010  Ride(payable(msg.sender), _driver, _price, _distance, _cashBack, false) */\n      mload(0x40)\n      dup1\n      0xc0\n      add\n      0x40\n      mstore\n      dup1\n        /* \"RideShare.sol\":952:962  msg.sender */\n      caller\n        /* \"RideShare.sol\":939:1010  Ride(payable(msg.sender), _driver, _price, _distance, _cashBack, false) */\n      0xffffffffffffffffffffffffffffffffffffffff\n      and\n      dup2\n      mstore\n      0x20\n      add\n        /* \"RideShare.sol\":965:972  _driver */\n      dup6\n        /* \"RideShare.sol\":939:1010  Ride(payable(msg.sender), _driver, _price, _distance, _cashBack, false) */\n      0xffffffffffffffffffffffffffffffffffffffff\n      and\n      dup2\n      mstore\n      0x20\n      add\n        /* \"RideShare.sol\":974:980  _price */\n      dup4\n        /* \"RideShare.sol\":939:1010  Ride(payable(msg.sender), _driver, _price, _distance, _cashBack, false) */\n      dup2\n      mstore\n      0x20\n      add\n        /* \"RideShare.sol\":982:991  _distance */\n      dup5\n        /* \"RideShare.sol\":939:1010  Ride(payable(msg.sender), _driver, _price, _distance, _cashBack, false) */\n      dup2\n      mstore\n      0x20\n      add\n        /* \"RideShare.sol\":993:1002  _cashBack */\n      dup3\n        /* \"RideShare.sol\":939:1010  Ride(payable(msg.sender), _driver, _price, _distance, _cashBack, false) */\n      dup2\n      mstore\n      0x20\n      add\n        /* \"RideShare.sol\":1004:1009  false */\n      0x00\n        /* \"RideShare.sol\":939:1010  Ride(payable(msg.sender), _driver, _price, _distance, _cashBack, false) */\n      iszero\n      iszero\n      dup2\n      mstore\n      pop\n        /* \"RideShare.sol\":923:928  rides */\n      0x01\n        /* \"RideShare.sol\":923:936  rides[rideId] */\n      0x00\n        /* \"RideShare.sol\":929:935  rideId */\n      dup1\n      sload\n        /* \"RideShare.sol\":923:936  rides[rideId] */\n      dup2\n      mstore\n      0x20\n      add\n      swap1\n      dup2\n      mstore\n      0x20\n      add\n      0x00\n      keccak256\n        /* \"RideShare.sol\":923:1010  rides[rideId] = Ride(payable(msg.sender), _driver, _price, _distance, _cashBack, false) */\n      0x00\n      dup3\n      add\n      mload\n      dup2\n      0x00\n      add\n      exp(0x0100, 0x00)\n      dup2\n      sload\n      dup2\n      0xffffffffffffffffffffffffffffffffffffffff\n      mul\n      not\n      and\n      swap1\n      dup4\n      0xffffffffffffffffffffffffffffffffffffffff\n      and\n      mul\n      or\n      swap1\n      sstore\n      pop\n      0x20\n      dup3\n      add\n      mload\n      dup2\n      0x01\n      add\n      exp(0x0100, 0x00)\n      dup2\n      sload\n      dup2\n      0xffffffffffffffffffffffffffffffffffffffff\n      mul\n      not\n      and\n      swap1\n      dup4\n      0xffffffffffffffffffffffffffffffffffffffff\n      and\n      mul\n      or\n      swap1\n      sstore\n      pop\n      0x40\n      dup3\n      add\n      mload\n      dup2\n      0x02\n      add\n      sstore\n      0x60\n      dup3\n      add\n      mload\n      dup2\n      0x03\n      add\n      sstore\n      0x80\n      dup3\n      add\n      mload\n      dup2\n      0x04\n      add\n      sstore\n      0xa0\n      dup3\n      add\n      mload\n      dup2\n      0x05\n      add\n      exp(0x0100, 0x00)\n      dup2\n      sload\n      dup2\n      0xff\n      mul\n      not\n      and\n      swap1\n      dup4\n      iszero\n      iszero\n      mul\n      or\n      swap1\n      sstore\n      pop\n      swap1\n      pop\n      pop\n        /* \"RideShare.sol\":1056:1063  _driver */\n      dup4\n        /* \"RideShare.sol\":1028:1064  NewRide(rideId, msg.sender, _driver) */\n      0xffffffffffffffffffffffffffffffffffffffff\n      and\n        /* \"RideShare.sol\":1044:1054  msg.sender */\n      caller\n        /* \"RideShare.sol\":1028:1064  NewRide(rideId, msg.sender, _driver) */\n      0xffffffffffffffffffffffffffffffffffffffff\n      and\n      0x6e58c45baadc6c67d671117a9774ab2dbeb18d21752003b6295d40f469853f24\n        /* \"RideShare.sol\":1036:1042  rideId */\n      sload(0x00)\n        /* \"RideShare.sol\":1028:1064  NewRide(rideId, msg.sender, _driver) */\n      mload(0x40)\n      tag_61\n      swap2\n      swap1\n      tag_31\n      jump\t// in\n    tag_61:\n      mload(0x40)\n      dup1\n      swap2\n      sub\n      swap1\n      log3\n        /* \"RideShare.sol\":1075:1081  rideId */\n      0x00\n      dup1\n        /* \"RideShare.sol\":1075:1083  rideId++ */\n      dup2\n      sload\n      dup1\n      swap3\n      swap2\n      swap1\n      tag_62\n      swap1\n      tag_63\n      jump\t// in\n    tag_62:\n      swap2\n      swap1\n      pop\n      sstore\n      pop\n        /* \"RideShare.sol\":719:1091  {... */\n      pop\n      pop\n        /* \"RideShare.sol\":637:1091  function requestRide(address payable _driver, uint256 _distance) external payable {... */\n      pop\n      pop\n      jump\t// out\n        /* \"RideShare.sol\":86:107  uint256 public rideId */\n    tag_29:\n      sload(0x00)\n      dup2\n      jump\t// out\n        /* \"RideShare.sol\":1143:1387  function acceptRide(uint256 _rideId) external {... */\n    tag_35:\n        /* \"RideShare.sol\":1200:1217  Ride storage ride */\n      0x00\n        /* \"RideShare.sol\":1220:1225  rides */\n      0x01\n        /* \"RideShare.sol\":1220:1234  rides[_rideId] */\n      0x00\n        /* \"RideShare.sol\":1226:1233  _rideId */\n      dup4\n        /* \"RideShare.sol\":1220:1234  rides[_rideId] */\n      dup2\n      mstore\n      0x20\n      add\n      swap1\n      dup2\n      mstore\n      0x20\n      add\n      0x00\n      keccak256\n        /* \"RideShare.sol\":1200:1234  Ride storage ride = rides[_rideId] */\n      swap1\n      pop\n        /* \"RideShare.sol\":1267:1271  ride */\n      dup1\n        /* \"RideShare.sol\":1267:1278  ride.driver */\n      0x01\n      add\n      0x00\n      swap1\n      sload\n      swap1\n      0x0100\n      exp\n      swap1\n      div\n      0xffffffffffffffffffffffffffffffffffffffff\n      and\n        /* \"RideShare.sol\":1253:1278  msg.sender == ride.driver */\n      0xffffffffffffffffffffffffffffffffffffffff\n      and\n        /* \"RideShare.sol\":1253:1263  msg.sender */\n      caller\n        /* \"RideShare.sol\":1253:1278  msg.sender == ride.driver */\n      0xffffffffffffffffffffffffffffffffffffffff\n      and\n      eq\n        /* \"RideShare.sol\":1245:1323  require(msg.sender == ride.driver, \"Only assigned driver can accept the ride\") */\n      tag_65\n      jumpi\n      mload(0x40)\n      0x08c379a000000000000000000000000000000000000000000000000000000000\n      dup2\n      mstore\n      0x04\n      add\n      tag_66\n      swap1\n      tag_67\n      jump\t// in\n    tag_66:\n      mload(0x40)\n      dup1\n      swap2\n      sub\n      swap1\n      revert\n    tag_65:\n        /* \"RideShare.sol\":1344:1348  ride */\n      dup1\n        /* \"RideShare.sol\":1344:1354  ride.rider */\n      0x00\n      add\n      0x00\n      swap1\n      sload\n      swap1\n      0x0100\n      exp\n      swap1\n      div\n      0xffffffffffffffffffffffffffffffffffffffff\n      and\n        /* \"RideShare.sol\":1336:1364  payable(ride.rider).transfer */\n      0xffffffffffffffffffffffffffffffffffffffff\n      and\n        /* \"RideShare.sol\":1336:1379  payable(ride.rider).transfer(ride.cashBack) */\n      0x08fc\n        /* \"RideShare.sol\":1365:1369  ride */\n      dup3\n        /* \"RideShare.sol\":1365:1378  ride.cashBack */\n      0x04\n      add\n      sload\n        /* \"RideShare.sol\":1336:1379  payable(ride.rider).transfer(ride.cashBack) */\n      swap1\n      dup2\n      iszero\n      mul\n      swap1\n      mload(0x40)\n      0x00\n      mload(0x40)\n      dup1\n      dup4\n      sub\n      dup2\n      dup6\n      dup9\n      dup9\n      call\n      swap4\n      pop\n      pop\n      pop\n      pop\n      iszero\n      dup1\n      iszero\n      tag_69\n      jumpi\n      returndatasize\n      0x00\n      dup1\n      returndatacopy\n      revert(0x00, returndatasize)\n    tag_69:\n      pop\n        /* \"RideShare.sol\":1189:1387  {... */\n      pop\n        /* \"RideShare.sol\":1143:1387  function acceptRide(uint256 _rideId) external {... */\n      pop\n      jump\t// out\n        /* \"#utility.yul\":88:205   */\n    tag_71:\n        /* \"#utility.yul\":197:198   */\n      0x00\n        /* \"#utility.yul\":194:195   */\n      dup1\n        /* \"#utility.yul\":187:199   */\n      revert\n        /* \"#utility.yul\":334:411   */\n    tag_73:\n        /* \"#utility.yul\":371:378   */\n      0x00\n        /* \"#utility.yul\":400:405   */\n      dup2\n        /* \"#utility.yul\":389:405   */\n      swap1\n      pop\n        /* \"#utility.yul\":334:411   */\n      swap2\n      swap1\n      pop\n      jump\t// out\n        /* \"#utility.yul\":417:539   */\n    tag_74:\n        /* \"#utility.yul\":490:514   */\n      tag_102\n        /* \"#utility.yul\":508:513   */\n      dup2\n        /* \"#utility.yul\":490:514   */\n      tag_73\n      jump\t// in\n    tag_102:\n        /* \"#utility.yul\":483:488   */\n      dup2\n        /* \"#utility.yul\":480:515   */\n      eq\n        /* \"#utility.yul\":470:533   */\n      tag_103\n      jumpi\n        /* \"#utility.yul\":529:530   */\n      0x00\n        /* \"#utility.yul\":526:527   */\n      dup1\n        /* \"#utility.yul\":519:531   */\n      revert\n        /* \"#utility.yul\":470:533   */\n    tag_103:\n        /* \"#utility.yul\":417:539   */\n      pop\n      jump\t// out\n        /* \"#utility.yul\":545:684   */\n    tag_75:\n        /* \"#utility.yul\":591:596   */\n      0x00\n        /* \"#utility.yul\":629:635   */\n      dup2\n        /* \"#utility.yul\":616:636   */\n      calldataload\n        /* \"#utility.yul\":607:636   */\n      swap1\n      pop\n        /* \"#utility.yul\":645:678   */\n      tag_105\n        /* \"#utility.yul\":672:677   */\n      dup2\n        /* \"#utility.yul\":645:678   */\n      tag_74\n      jump\t// in\n    tag_105:\n        /* \"#utility.yul\":545:684   */\n      swap3\n      swap2\n      pop\n      pop\n      jump\t// out\n        /* \"#utility.yul\":690:1019   */\n    tag_11:\n        /* \"#utility.yul\":749:755   */\n      0x00\n        /* \"#utility.yul\":798:800   */\n      0x20\n        /* \"#utility.yul\":786:795   */\n      dup3\n        /* \"#utility.yul\":777:784   */\n      dup5\n        /* \"#utility.yul\":773:796   */\n      sub\n        /* \"#utility.yul\":769:801   */\n      slt\n        /* \"#utility.yul\":766:885   */\n      iszero\n      tag_107\n      jumpi\n        /* \"#utility.yul\":804:883   */\n      tag_108\n      tag_71\n      jump\t// in\n    tag_108:\n        /* \"#utility.yul\":766:885   */\n    tag_107:\n        /* \"#utility.yul\":924:925   */\n      0x00\n        /* \"#utility.yul\":949:1002   */\n      tag_109\n        /* \"#utility.yul\":994:1001   */\n      dup5\n        /* \"#utility.yul\":985:991   */\n      dup3\n        /* \"#utility.yul\":974:983   */\n      dup6\n        /* \"#utility.yul\":970:992   */\n      add\n        /* \"#utility.yul\":949:1002   */\n      tag_75\n      jump\t// in\n    tag_109:\n        /* \"#utility.yul\":939:1002   */\n      swap2\n      pop\n        /* \"#utility.yul\":895:1012   */\n      pop\n        /* \"#utility.yul\":690:1019   */\n      swap3\n      swap2\n      pop\n      pop\n      jump\t// out\n        /* \"#utility.yul\":1025:1151   */\n    tag_76:\n        /* \"#utility.yul\":1062:1069   */\n      0x00\n        /* \"#utility.yul\":1102:1144   */\n      0xffffffffffffffffffffffffffffffffffffffff\n        /* \"#utility.yul\":1095:1100   */\n      dup3\n        /* \"#utility.yul\":1091:1145   */\n      and\n        /* \"#utility.yul\":1080:1145   */\n      swap1\n      pop\n        /* \"#utility.yul\":1025:1151   */\n      swap2\n      swap1\n      pop\n      jump\t// out\n        /* \"#utility.yul\":1157:1261   */\n    tag_77:\n        /* \"#utility.yul\":1202:1209   */\n      0x00\n        /* \"#utility.yul\":1231:1255   */\n      tag_112\n        /* \"#utility.yul\":1249:1254   */\n      dup3\n        /* \"#utility.yul\":1231:1255   */\n      tag_76\n      jump\t// in\n    tag_112:\n        /* \"#utility.yul\":1220:1255   */\n      swap1\n      pop\n        /* \"#utility.yul\":1157:1261   */\n      swap2\n      swap1\n      pop\n      jump\t// out\n        /* \"#utility.yul\":1267:1409   */\n    tag_78:\n        /* \"#utility.yul\":1370:1402   */\n      tag_114\n        /* \"#utility.yul\":1396:1401   */\n      dup2\n        /* \"#utility.yul\":1370:1402   */\n      tag_77\n      jump\t// in\n    tag_114:\n        /* \"#utility.yul\":1365:1368   */\n      dup3\n        /* \"#utility.yul\":1358:1403   */\n      mstore\n        /* \"#utility.yul\":1267:1409   */\n      pop\n      pop\n      jump\t// out\n        /* \"#utility.yul\":1415:1533   */\n    tag_79:\n        /* \"#utility.yul\":1502:1526   */\n      tag_116\n        /* \"#utility.yul\":1520:1525   */\n      dup2\n        /* \"#utility.yul\":1502:1526   */\n      tag_73\n      jump\t// in\n    tag_116:\n        /* \"#utility.yul\":1497:1500   */\n      dup3\n        /* \"#utility.yul\":1490:1527   */\n      mstore\n        /* \"#utility.yul\":1415:1533   */\n      pop\n      pop\n      jump\t// out\n        /* \"#utility.yul\":1539:1629   */\n    tag_80:\n        /* \"#utility.yul\":1573:1580   */\n      0x00\n        /* \"#utility.yul\":1616:1621   */\n      dup2\n        /* \"#utility.yul\":1609:1622   */\n      iszero\n        /* \"#utility.yul\":1602:1623   */\n      iszero\n        /* \"#utility.yul\":1591:1623   */\n      swap1\n      pop\n        /* \"#utility.yul\":1539:1629   */\n      swap2\n      swap1\n      pop\n      jump\t// out\n        /* \"#utility.yul\":1635:1744   */\n    tag_81:\n        /* \"#utility.yul\":1716:1737   */\n      tag_119\n        /* \"#utility.yul\":1731:1736   */\n      dup2\n        /* \"#utility.yul\":1716:1737   */\n      tag_80\n      jump\t// in\n    tag_119:\n        /* \"#utility.yul\":1711:1714   */\n      dup3\n        /* \"#utility.yul\":1704:1738   */\n      mstore\n        /* \"#utility.yul\":1635:1744   */\n      pop\n      pop\n      jump\t// out\n        /* \"#utility.yul\":1750:2577   */\n    tag_18:\n        /* \"#utility.yul\":2009:2013   */\n      0x00\n        /* \"#utility.yul\":2047:2050   */\n      0xc0\n        /* \"#utility.yul\":2036:2045   */\n      dup3\n        /* \"#utility.yul\":2032:2051   */\n      add\n        /* \"#utility.yul\":2024:2051   */\n      swap1\n      pop\n        /* \"#utility.yul\":2061:2148   */\n      tag_121\n        /* \"#utility.yul\":2145:2146   */\n      0x00\n        /* \"#utility.yul\":2134:2143   */\n      dup4\n        /* \"#utility.yul\":2130:2147   */\n      add\n        /* \"#utility.yul\":2121:2127   */\n      dup10\n        /* \"#utility.yul\":2061:2148   */\n      tag_78\n      jump\t// in\n    tag_121:\n        /* \"#utility.yul\":2158:2246   */\n      tag_122\n        /* \"#utility.yul\":2242:2244   */\n      0x20\n        /* \"#utility.yul\":2231:2240   */\n      dup4\n        /* \"#utility.yul\":2227:2245   */\n      add\n        /* \"#utility.yul\":2218:2224   */\n      dup9\n        /* \"#utility.yul\":2158:2246   */\n      tag_78\n      jump\t// in\n    tag_122:\n        /* \"#utility.yul\":2256:2328   */\n      tag_123\n        /* \"#utility.yul\":2324:2326   */\n      0x40\n        /* \"#utility.yul\":2313:2322   */\n      dup4\n        /* \"#utility.yul\":2309:2327   */\n      add\n        /* \"#utility.yul\":2300:2306   */\n      dup8\n        /* \"#utility.yul\":2256:2328   */\n      tag_79\n      jump\t// in\n    tag_123:\n        /* \"#utility.yul\":2338:2410   */\n      tag_124\n        /* \"#utility.yul\":2406:2408   */\n      0x60\n        /* \"#utility.yul\":2395:2404   */\n      dup4\n        /* \"#utility.yul\":2391:2409   */\n      add\n        /* \"#utility.yul\":2382:2388   */\n      dup7\n        /* \"#utility.yul\":2338:2410   */\n      tag_79\n      jump\t// in\n    tag_124:\n        /* \"#utility.yul\":2420:2493   */\n      tag_125\n        /* \"#utility.yul\":2488:2491   */\n      0x80\n        /* \"#utility.yul\":2477:2486   */\n      dup4\n        /* \"#utility.yul\":2473:2492   */\n      add\n        /* \"#utility.yul\":2464:2470   */\n      dup6\n        /* \"#utility.yul\":2420:2493   */\n      tag_79\n      jump\t// in\n    tag_125:\n        /* \"#utility.yul\":2503:2570   */\n      tag_126\n        /* \"#utility.yul\":2565:2568   */\n      0xa0\n        /* \"#utility.yul\":2554:2563   */\n      dup4\n        /* \"#utility.yul\":2550:2569   */\n      add\n        /* \"#utility.yul\":2541:2547   */\n      dup5\n        /* \"#utility.yul\":2503:2570   */\n      tag_81\n      jump\t// in\n    tag_126:\n        /* \"#utility.yul\":1750:2577   */\n      swap8\n      swap7\n      pop\n      pop\n      pop\n      pop\n      pop\n      pop\n      pop\n      jump\t// out\n        /* \"#utility.yul\":2583:2721   */\n    tag_82:\n        /* \"#utility.yul\":2664:2696   */\n      tag_128\n        /* \"#utility.yul\":2690:2695   */\n      dup2\n        /* \"#utility.yul\":2664:2696   */\n      tag_77\n      jump\t// in\n    tag_128:\n        /* \"#utility.yul\":2657:2662   */\n      dup2\n        /* \"#utility.yul\":2654:2697   */\n      eq\n        /* \"#utility.yul\":2644:2715   */\n      tag_129\n      jumpi\n        /* \"#utility.yul\":2711:2712   */\n      0x00\n        /* \"#utility.yul\":2708:2709   */\n      dup1\n        /* \"#utility.yul\":2701:2713   */\n      revert\n        /* \"#utility.yul\":2644:2715   */\n    tag_129:\n        /* \"#utility.yul\":2583:2721   */\n      pop\n      jump\t// out\n        /* \"#utility.yul\":2727:2882   */\n    tag_83:\n        /* \"#utility.yul\":2781:2786   */\n      0x00\n        /* \"#utility.yul\":2819:2825   */\n      dup2\n        /* \"#utility.yul\":2806:2826   */\n      calldataload\n        /* \"#utility.yul\":2797:2826   */\n      swap1\n      pop\n        /* \"#utility.yul\":2835:2876   */\n      tag_131\n        /* \"#utility.yul\":2870:2875   */\n      dup2\n        /* \"#utility.yul\":2835:2876   */\n      tag_82\n      jump\t// in\n    tag_131:\n        /* \"#utility.yul\":2727:2882   */\n      swap3\n      swap2\n      pop\n      pop\n      jump\t// out\n        /* \"#utility.yul\":2888:3378   */\n    tag_25:\n        /* \"#utility.yul\":2964:2970   */\n      0x00\n        /* \"#utility.yul\":2972:2978   */\n      dup1\n        /* \"#utility.yul\":3021:3023   */\n      0x40\n        /* \"#utility.yul\":3009:3018   */\n      dup4\n        /* \"#utility.yul\":3000:3007   */\n      dup6\n        /* \"#utility.yul\":2996:3019   */\n      sub\n        /* \"#utility.yul\":2992:3024   */\n      slt\n        /* \"#utility.yul\":2989:3108   */\n      iszero\n      tag_133\n      jumpi\n        /* \"#utility.yul\":3027:3106   */\n      tag_134\n      tag_71\n      jump\t// in\n    tag_134:\n        /* \"#utility.yul\":2989:3108   */\n    tag_133:\n        /* \"#utility.yul\":3147:3148   */\n      0x00\n        /* \"#utility.yul\":3172:3233   */\n      tag_135\n        /* \"#utility.yul\":3225:3232   */\n      dup6\n        /* \"#utility.yul\":3216:3222   */\n      dup3\n        /* \"#utility.yul\":3205:3214   */\n      dup7\n        /* \"#utility.yul\":3201:3223   */\n      add\n        /* \"#utility.yul\":3172:3233   */\n      tag_83\n      jump\t// in\n    tag_135:\n        /* \"#utility.yul\":3162:3233   */\n      swap3\n      pop\n        /* \"#utility.yul\":3118:3243   */\n      pop\n        /* \"#utility.yul\":3282:3284   */\n      0x20\n        /* \"#utility.yul\":3308:3361   */\n      tag_136\n        /* \"#utility.yul\":3353:3360   */\n      dup6\n        /* \"#utility.yul\":3344:3350   */\n      dup3\n        /* \"#utility.yul\":3333:3342   */\n      dup7\n        /* \"#utility.yul\":3329:3351   */\n      add\n        /* \"#utility.yul\":3308:3361   */\n      tag_75\n      jump\t// in\n    tag_136:\n        /* \"#utility.yul\":3298:3361   */\n      swap2\n      pop\n        /* \"#utility.yul\":3253:3371   */\n      pop\n        /* \"#utility.yul\":2888:3378   */\n      swap3\n      pop\n      swap3\n      swap1\n      pop\n      jump\t// out\n        /* \"#utility.yul\":3384:3606   */\n    tag_31:\n        /* \"#utility.yul\":3477:3481   */\n      0x00\n        /* \"#utility.yul\":3515:3517   */\n      0x20\n        /* \"#utility.yul\":3504:3513   */\n      dup3\n        /* \"#utility.yul\":3500:3518   */\n      add\n        /* \"#utility.yul\":3492:3518   */\n      swap1\n      pop\n        /* \"#utility.yul\":3528:3599   */\n      tag_138\n        /* \"#utility.yul\":3596:3597   */\n      0x00\n        /* \"#utility.yul\":3585:3594   */\n      dup4\n        /* \"#utility.yul\":3581:3598   */\n      add\n        /* \"#utility.yul\":3572:3578   */\n      dup5\n        /* \"#utility.yul\":3528:3599   */\n      tag_79\n      jump\t// in\n    tag_138:\n        /* \"#utility.yul\":3384:3606   */\n      swap3\n      swap2\n      pop\n      pop\n      jump\t// out\n        /* \"#utility.yul\":3612:3781   */\n    tag_84:\n        /* \"#utility.yul\":3696:3707   */\n      0x00\n        /* \"#utility.yul\":3730:3736   */\n      dup3\n        /* \"#utility.yul\":3725:3728   */\n      dup3\n        /* \"#utility.yul\":3718:3737   */\n      mstore\n        /* \"#utility.yul\":3770:3774   */\n      0x20\n        /* \"#utility.yul\":3765:3768   */\n      dup3\n        /* \"#utility.yul\":3761:3775   */\n      add\n        /* \"#utility.yul\":3746:3775   */\n      swap1\n      pop\n        /* \"#utility.yul\":3612:3781   */\n      swap3\n      swap2\n      pop\n      pop\n      jump\t// out\n        /* \"#utility.yul\":3787:3969   */\n    tag_85:\n        /* \"#utility.yul\":3927:3961   */\n      0x4f6e6c792072696465722063616e206d61726b20617320636f6d706c65746564\n        /* \"#utility.yul\":3923:3924   */\n      0x00\n        /* \"#utility.yul\":3915:3921   */\n      dup3\n        /* \"#utility.yul\":3911:3925   */\n      add\n        /* \"#utility.yul\":3904:3962   */\n      mstore\n        /* \"#utility.yul\":3787:3969   */\n      pop\n      jump\t// out\n        /* \"#utility.yul\":3975:4341   */\n    tag_86:\n        /* \"#utility.yul\":4117:4120   */\n      0x00\n        /* \"#utility.yul\":4138:4205   */\n      tag_142\n        /* \"#utility.yul\":4202:4204   */\n      0x20\n        /* \"#utility.yul\":4197:4200   */\n      dup4\n        /* \"#utility.yul\":4138:4205   */\n      tag_84\n      jump\t// in\n    tag_142:\n        /* \"#utility.yul\":4131:4205   */\n      swap2\n      pop\n        /* \"#utility.yul\":4214:4307   */\n      tag_143\n        /* \"#utility.yul\":4303:4306   */\n      dup3\n        /* \"#utility.yul\":4214:4307   */\n      tag_85\n      jump\t// in\n    tag_143:\n        /* \"#utility.yul\":4332:4334   */\n      0x20\n        /* \"#utility.yul\":4327:4330   */\n      dup3\n        /* \"#utility.yul\":4323:4335   */\n      add\n        /* \"#utility.yul\":4316:4335   */\n      swap1\n      pop\n        /* \"#utility.yul\":3975:4341   */\n      swap2\n      swap1\n      pop\n      jump\t// out\n        /* \"#utility.yul\":4347:4766   */\n    tag_39:\n        /* \"#utility.yul\":4513:4517   */\n      0x00\n        /* \"#utility.yul\":4551:4553   */\n      0x20\n        /* \"#utility.yul\":4540:4549   */\n      dup3\n        /* \"#utility.yul\":4536:4554   */\n      add\n        /* \"#utility.yul\":4528:4554   */\n      swap1\n      pop\n        /* \"#utility.yul\":4600:4609   */\n      dup2\n        /* \"#utility.yul\":4594:4598   */\n      dup2\n        /* \"#utility.yul\":4590:4610   */\n      sub\n        /* \"#utility.yul\":4586:4587   */\n      0x00\n        /* \"#utility.yul\":4575:4584   */\n      dup4\n        /* \"#utility.yul\":4571:4588   */\n      add\n        /* \"#utility.yul\":4564:4611   */\n      mstore\n        /* \"#utility.yul\":4628:4759   */\n      tag_145\n        /* \"#utility.yul\":4754:4758   */\n      dup2\n        /* \"#utility.yul\":4628:4759   */\n      tag_86\n      jump\t// in\n    tag_145:\n        /* \"#utility.yul\":4620:4759   */\n      swap1\n      pop\n        /* \"#utility.yul\":4347:4766   */\n      swap2\n      swap1\n      pop\n      jump\t// out\n        /* \"#utility.yul\":4772:4944   */\n    tag_87:\n        /* \"#utility.yul\":4912:4936   */\n      0x5269646520616c726561647920636f6d706c6574656400000000000000000000\n        /* \"#utility.yul\":4908:4909   */\n      0x00\n        /* \"#utility.yul\":4900:4906   */\n      dup3\n        /* \"#utility.yul\":4896:4910   */\n      add\n        /* \"#utility.yul\":4889:4937   */\n      mstore\n        /* \"#utility.yul\":4772:4944   */\n      pop\n      jump\t// out\n        /* \"#utility.yul\":4950:5316   */\n    tag_88:\n        /* \"#utility.yul\":5092:5095   */\n      0x00\n        /* \"#utility.yul\":5113:5180   */\n      tag_148\n        /* \"#utility.yul\":5177:5179   */\n      0x16\n        /* \"#utility.yul\":5172:5175   */\n      dup4\n        /* \"#utility.yul\":5113:5180   */\n      tag_84\n      jump\t// in\n    tag_148:\n        /* \"#utility.yul\":5106:5180   */\n      swap2\n      pop\n        /* \"#utility.yul\":5189:5282   */\n      tag_149\n        /* \"#utility.yul\":5278:5281   */\n      dup3\n        /* \"#utility.yul\":5189:5282   */\n      tag_87\n      jump\t// in\n    tag_149:\n        /* \"#utility.yul\":5307:5309   */\n      0x20\n        /* \"#utility.yul\":5302:5305   */\n      dup3\n        /* \"#utility.yul\":5298:5310   */\n      add\n        /* \"#utility.yul\":5291:5310   */\n      swap1\n      pop\n        /* \"#utility.yul\":4950:5316   */\n      swap2\n      swap1\n      pop\n      jump\t// out\n        /* \"#utility.yul\":5322:5741   */\n    tag_42:\n        /* \"#utility.yul\":5488:5492   */\n      0x00\n        /* \"#utility.yul\":5526:5528   */\n      0x20\n        /* \"#utility.yul\":5515:5524   */\n      dup3\n        /* \"#utility.yul\":5511:5529   */\n      add\n        /* \"#utility.yul\":5503:5529   */\n      swap1\n      pop\n        /* \"#utility.yul\":5575:5584   */\n      dup2\n        /* \"#utility.yul\":5569:5573   */\n      dup2\n        /* \"#utility.yul\":5565:5585   */\n      sub\n        /* \"#utility.yul\":5561:5562   */\n      0x00\n        /* \"#utility.yul\":5550:5559   */\n      dup4\n        /* \"#utility.yul\":5546:5563   */\n      add\n        /* \"#utility.yul\":5539:5586   */\n      mstore\n        /* \"#utility.yul\":5603:5734   */\n      tag_151\n        /* \"#utility.yul\":5729:5733   */\n      dup2\n        /* \"#utility.yul\":5603:5734   */\n      tag_88\n      jump\t// in\n    tag_151:\n        /* \"#utility.yul\":5595:5734   */\n      swap1\n      pop\n        /* \"#utility.yul\":5322:5741   */\n      swap2\n      swap1\n      pop\n      jump\t// out\n        /* \"#utility.yul\":5747:5928   */\n    tag_89:\n        /* \"#utility.yul\":5887:5920   */\n      0x4f6e6c79207269646572206f72206472697665722063616e2063616e63656c00\n        /* \"#utility.yul\":5883:5884   */\n      0x00\n        /* \"#utility.yul\":5875:5881   */\n      dup3\n        /* \"#utility.yul\":5871:5885   */\n      add\n        /* \"#utility.yul\":5864:5921   */\n      mstore\n        /* \"#utility.yul\":5747:5928   */\n      pop\n      jump\t// out\n        /* \"#utility.yul\":5934:6300   */\n    tag_90:\n        /* \"#utility.yul\":6076:6079   */\n      0x00\n        /* \"#utility.yul\":6097:6164   */\n      tag_154\n        /* \"#utility.yul\":6161:6163   */\n      0x1f\n        /* \"#utility.yul\":6156:6159   */\n      dup4\n        /* \"#utility.yul\":6097:6164   */\n      tag_84\n      jump\t// in\n    tag_154:\n        /* \"#utility.yul\":6090:6164   */\n      swap2\n      pop\n        /* \"#utility.yul\":6173:6266   */\n      tag_155\n        /* \"#utility.yul\":6262:6265   */\n      dup3\n        /* \"#utility.yul\":6173:6266   */\n      tag_89\n      jump\t// in\n    tag_155:\n        /* \"#utility.yul\":6291:6293   */\n      0x20\n        /* \"#utility.yul\":6286:6289   */\n      dup3\n        /* \"#utility.yul\":6282:6294   */\n      add\n        /* \"#utility.yul\":6275:6294   */\n      swap1\n      pop\n        /* \"#utility.yul\":5934:6300   */\n      swap2\n      swap1\n      pop\n      jump\t// out\n        /* \"#utility.yul\":6306:6725   */\n    tag_49:\n        /* \"#utility.yul\":6472:6476   */\n      0x00\n        /* \"#utility.yul\":6510:6512   */\n      0x20\n        /* \"#utility.yul\":6499:6508   */\n      dup3\n        /* \"#utility.yul\":6495:6513   */\n      add\n        /* \"#utility.yul\":6487:6513   */\n      swap1\n      pop\n        /* \"#utility.yul\":6559:6568   */\n      dup2\n        /* \"#utility.yul\":6553:6557   */\n      dup2\n        /* \"#utility.yul\":6549:6569   */\n      sub\n        /* \"#utility.yul\":6545:6546   */\n      0x00\n        /* \"#utility.yul\":6534:6543   */\n      dup4\n        /* \"#utility.yul\":6530:6547   */\n      add\n        /* \"#utility.yul\":6523:6570   */\n      mstore\n        /* \"#utility.yul\":6587:6718   */\n      tag_157\n        /* \"#utility.yul\":6713:6717   */\n      dup2\n        /* \"#utility.yul\":6587:6718   */\n      tag_90\n      jump\t// in\n    tag_157:\n        /* \"#utility.yul\":6579:6718   */\n      swap1\n      pop\n        /* \"#utility.yul\":6306:6725   */\n      swap2\n      swap1\n      pop\n      jump\t// out\n        /* \"#utility.yul\":6731:6911   */\n    tag_91:\n        /* \"#utility.yul\":6779:6856   */\n      0x4e487b7100000000000000000000000000000000000000000000000000000000\n        /* \"#utility.yul\":6776:6777   */\n      0x00\n        /* \"#utility.yul\":6769:6857   */\n      mstore\n        /* \"#utility.yul\":6876:6880   */\n      0x11\n        /* \"#utility.yul\":6873:6874   */\n      0x04\n        /* \"#utility.yul\":6866:6881   */\n      mstore\n        /* \"#utility.yul\":6900:6904   */\n      0x24\n        /* \"#utility.yul\":6897:6898   */\n      0x00\n        /* \"#utility.yul\":6890:6905   */\n      revert\n        /* \"#utility.yul\":6917:7327   */\n    tag_54:\n        /* \"#utility.yul\":6957:6964   */\n      0x00\n        /* \"#utility.yul\":6980:7000   */\n      tag_160\n        /* \"#utility.yul\":6998:6999   */\n      dup3\n        /* \"#utility.yul\":6980:7000   */\n      tag_73\n      jump\t// in\n    tag_160:\n        /* \"#utility.yul\":6975:7000   */\n      swap2\n      pop\n        /* \"#utility.yul\":7014:7034   */\n      tag_161\n        /* \"#utility.yul\":7032:7033   */\n      dup4\n        /* \"#utility.yul\":7014:7034   */\n      tag_73\n      jump\t// in\n    tag_161:\n        /* \"#utility.yul\":7009:7034   */\n      swap3\n      pop\n        /* \"#utility.yul\":7069:7070   */\n      dup3\n        /* \"#utility.yul\":7066:7067   */\n      dup3\n        /* \"#utility.yul\":7062:7071   */\n      mul\n        /* \"#utility.yul\":7091:7121   */\n      tag_162\n        /* \"#utility.yul\":7109:7120   */\n      dup2\n        /* \"#utility.yul\":7091:7121   */\n      tag_73\n      jump\t// in\n    tag_162:\n        /* \"#utility.yul\":7080:7121   */\n      swap2\n      pop\n        /* \"#utility.yul\":7270:7271   */\n      dup3\n        /* \"#utility.yul\":7261:7268   */\n      dup3\n        /* \"#utility.yul\":7257:7272   */\n      div\n        /* \"#utility.yul\":7254:7255   */\n      dup5\n        /* \"#utility.yul\":7251:7273   */\n      eq\n        /* \"#utility.yul\":7231:7232   */\n      dup4\n        /* \"#utility.yul\":7224:7233   */\n      iszero\n        /* \"#utility.yul\":7204:7287   */\n      or\n        /* \"#utility.yul\":7181:7320   */\n      tag_163\n      jumpi\n        /* \"#utility.yul\":7300:7318   */\n      tag_164\n      tag_91\n      jump\t// in\n    tag_164:\n        /* \"#utility.yul\":7181:7320   */\n    tag_163:\n        /* \"#utility.yul\":6965:7327   */\n      pop\n        /* \"#utility.yul\":6917:7327   */\n      swap3\n      swap2\n      pop\n      pop\n      jump\t// out\n        /* \"#utility.yul\":7333:7510   */\n    tag_92:\n        /* \"#utility.yul\":7473:7502   */\n      0x496e73756666696369656e742066756e647320666f7220726964650000000000\n        /* \"#utility.yul\":7469:7470   */\n      0x00\n        /* \"#utility.yul\":7461:7467   */\n      dup3\n        /* \"#utility.yul\":7457:7471   */\n      add\n        /* \"#utility.yul\":7450:7503   */\n      mstore\n        /* \"#utility.yul\":7333:7510   */\n      pop\n      jump\t// out\n        /* \"#utility.yul\":7516:7882   */\n    tag_93:\n        /* \"#utility.yul\":7658:7661   */\n      0x00\n        /* \"#utility.yul\":7679:7746   */\n      tag_167\n        /* \"#utility.yul\":7743:7745   */\n      0x1b\n        /* \"#utility.yul\":7738:7741   */\n      dup4\n        /* \"#utility.yul\":7679:7746   */\n      tag_84\n      jump\t// in\n    tag_167:\n        /* \"#utility.yul\":7672:7746   */\n      swap2\n      pop\n        /* \"#utility.yul\":7755:7848   */\n      tag_168\n        /* \"#utility.yul\":7844:7847   */\n      dup3\n        /* \"#utility.yul\":7755:7848   */\n      tag_92\n      jump\t// in\n    tag_168:\n        /* \"#utility.yul\":7873:7875   */\n      0x20\n        /* \"#utility.yul\":7868:7871   */\n      dup3\n        /* \"#utility.yul\":7864:7876   */\n      add\n        /* \"#utility.yul\":7857:7876   */\n      swap1\n      pop\n        /* \"#utility.yul\":7516:7882   */\n      swap2\n      swap1\n      pop\n      jump\t// out\n        /* \"#utility.yul\":7888:8307   */\n    tag_57:\n        /* \"#utility.yul\":8054:8058   */\n      0x00\n        /* \"#utility.yul\":8092:8094   */\n      0x20\n        /* \"#utility.yul\":8081:8090   */\n      dup3\n        /* \"#utility.yul\":8077:8095   */\n      add\n        /* \"#utility.yul\":8069:8095   */\n      swap1\n      pop\n        /* \"#utility.yul\":8141:8150   */\n      dup2\n        /* \"#utility.yul\":8135:8139   */\n      dup2\n        /* \"#utility.yul\":8131:8151   */\n      sub\n        /* \"#utility.yul\":8127:8128   */\n      0x00\n        /* \"#utility.yul\":8116:8125   */\n      dup4\n        /* \"#utility.yul\":8112:8129   */\n      add\n        /* \"#utility.yul\":8105:8152   */\n      mstore\n        /* \"#utility.yul\":8169:8300   */\n      tag_170\n        /* \"#utility.yul\":8295:8299   */\n      dup2\n        /* \"#utility.yul\":8169:8300   */\n      tag_93\n      jump\t// in\n    tag_170:\n        /* \"#utility.yul\":8161:8300   */\n      swap1\n      pop\n        /* \"#utility.yul\":7888:8307   */\n      swap2\n      swap1\n      pop\n      jump\t// out\n        /* \"#utility.yul\":8313:8507   */\n    tag_60:\n        /* \"#utility.yul\":8353:8357   */\n      0x00\n        /* \"#utility.yul\":8373:8393   */\n      tag_172\n        /* \"#utility.yul\":8391:8392   */\n      dup3\n        /* \"#utility.yul\":8373:8393   */\n      tag_73\n      jump\t// in\n    tag_172:\n        /* \"#utility.yul\":8368:8393   */\n      swap2\n      pop\n        /* \"#utility.yul\":8407:8427   */\n      tag_173\n        /* \"#utility.yul\":8425:8426   */\n      dup4\n        /* \"#utility.yul\":8407:8427   */\n      tag_73\n      jump\t// in\n    tag_173:\n        /* \"#utility.yul\":8402:8427   */\n      swap3\n      pop\n        /* \"#utility.yul\":8451:8452   */\n      dup3\n        /* \"#utility.yul\":8448:8449   */\n      dup3\n        /* \"#utility.yul\":8444:8453   */\n      sub\n        /* \"#utility.yul\":8436:8453   */\n      swap1\n      pop\n        /* \"#utility.yul\":8475:8476   */\n      dup2\n        /* \"#utility.yul\":8469:8473   */\n      dup2\n        /* \"#utility.yul\":8466:8477   */\n      gt\n        /* \"#utility.yul\":8463:8500   */\n      iszero\n      tag_174\n      jumpi\n        /* \"#utility.yul\":8480:8498   */\n      tag_175\n      tag_91\n      jump\t// in\n    tag_175:\n        /* \"#utility.yul\":8463:8500   */\n    tag_174:\n        /* \"#utility.yul\":8313:8507   */\n      swap3\n      swap2\n      pop\n      pop\n      jump\t// out\n        /* \"#utility.yul\":8513:8746   */\n    tag_63:\n        /* \"#utility.yul\":8552:8555   */\n      0x00\n        /* \"#utility.yul\":8575:8599   */\n      tag_177\n        /* \"#utility.yul\":8593:8598   */\n      dup3\n        /* \"#utility.yul\":8575:8599   */\n      tag_73\n      jump\t// in\n    tag_177:\n        /* \"#utility.yul\":8566:8599   */\n      swap2\n      pop\n        /* \"#utility.yul\":8621:8687   */\n      0xffffffffffffffffffffffffffffffffffffffffffffffffffffffffffffffff\n        /* \"#utility.yul\":8614:8619   */\n      dup3\n        /* \"#utility.yul\":8611:8688   */\n      sub\n        /* \"#utility.yul\":8608:8711   */\n      tag_178\n      jumpi\n        /* \"#utility.yul\":8691:8709   */\n      tag_179\n      tag_91\n      jump\t// in\n    tag_179:\n        /* \"#utility.yul\":8608:8711   */\n    tag_178:\n        /* \"#utility.yul\":8738:8739   */\n      0x01\n        /* \"#utility.yul\":8731:8736   */\n      dup3\n        /* \"#utility.yul\":8727:8740   */\n      add\n        /* \"#utility.yul\":8720:8740   */\n      swap1\n      pop\n        /* \"#utility.yul\":8513:8746   */\n      swap2\n      swap1\n      pop\n      jump\t// out\n        /* \"#utility.yul\":8752:8979   */\n    tag_94:\n        /* \"#utility.yul\":8892:8926   */\n      0x4f6e6c792061737369676e6564206472697665722063616e2061636365707420\n        /* \"#utility.yul\":8888:8889   */\n      0x00\n        /* \"#utility.yul\":8880:8886   */\n      dup3\n        /* \"#utility.yul\":8876:8890   */\n      add\n        /* \"#utility.yul\":8869:8927   */\n      mstore\n        /* \"#utility.yul\":8961:8971   */\n      0x7468652072696465000000000000000000000000000000000000000000000000\n        /* \"#utility.yul\":8956:8958   */\n      0x20\n        /* \"#utility.yul\":8948:8954   */\n      dup3\n        /* \"#utility.yul\":8944:8959   */\n      add\n        /* \"#utility.yul\":8937:8972   */\n      mstore\n        /* \"#utility.yul\":8752:8979   */\n      pop\n      jump\t// out\n        /* \"#utility.yul\":8985:9351   */\n    tag_95:\n        /* \"#utility.yul\":9127:9130   */\n      0x00\n        /* \"#utility.yul\":9148:9215   */\n      tag_182\n        /* \"#utility.yul\":9212:9214   */\n      0x28\n        /* \"#utility.yul\":9207:9210   */\n      dup4\n        /* \"#utility.yul\":9148:9215   */\n      tag_84\n      jump\t// in\n    tag_182:\n        /* \"#utility.yul\":9141:9215   */\n      swap2\n      pop\n        /* \"#utility.yul\":9224:9317   */\n      tag_183\n        /* \"#utility.yul\":9313:9316   */\n      dup3\n        /* \"#utility.yul\":9224:9317   */\n      tag_94\n      jump\t// in\n    tag_183:\n        /* \"#utility.yul\":9342:9344   */\n      0x40\n        /* \"#utility.yul\":9337:9340   */\n      dup3\n        /* \"#utility.yul\":9333:9345   */\n      add\n        /* \"#utility.yul\":9326:9345   */\n      swap1\n      pop\n        /* \"#utility.yul\":8985:9351   */\n      swap2\n      swap1\n      pop\n      jump\t// out\n        /* \"#utility.yul\":9357:9776   */\n    tag_67:\n        /* \"#utility.yul\":9523:9527   */\n      0x00\n        /* \"#utility.yul\":9561:9563   */\n      0x20\n        /* \"#utility.yul\":9550:9559   */\n      dup3\n        /* \"#utility.yul\":9546:9564   */\n      add\n        /* \"#utility.yul\":9538:9564   */\n      swap1\n      pop\n        /* \"#utility.yul\":9610:9619   */\n      dup2\n        /* \"#utility.yul\":9604:9608   */\n      dup2\n        /* \"#utility.yul\":9600:9620   */\n      sub\n        /* \"#utility.yul\":9596:9597   */\n      0x00\n        /* \"#utility.yul\":9585:9594   */\n      dup4\n        /* \"#utility.yul\":9581:9598   */\n      add\n        /* \"#utility.yul\":9574:9621   */\n      mstore\n        /* \"#utility.yul\":9638:9769   */\n      tag_185\n        /* \"#utility.yul\":9764:9768   */\n      dup2\n        /* \"#utility.yul\":9638:9769   */\n      tag_95\n      jump\t// in\n    tag_185:\n        /* \"#utility.yul\":9630:9769   */\n      swap1\n      pop\n        /* \"#utility.yul\":9357:9776   */\n      swap2\n      swap1\n      pop\n      jump\t// out\n\n    auxdata: 0xa264697066735822122065c8081c8c12c963063858591659b4019cebf612a70fee7b9da2ce54301021fd64736f6c634300081e0033\n}\n",
				"bytecode": {
					"linkReferences": {},
					"object": "6080604052655af3107a400034101561004d576040517f08c379a0000000000000000000000000000000000000000000000000000000008152600401610044906100d5565b60405180910390fd5b6100f5565b600082825260208201905092915050565b7f4d696e696d756d206465706c6f796d656e7420636f737420697320302e30303060008201527f3120657468657200000000000000000000000000000000000000000000000000602082015250565b60006100bf602783610052565b91506100ca82610063565b604082019050919050565b600060208201905081810360008301526100ee816100b2565b9050919050565b610e0a806101046000396000f3fe6080604052600436106100555760003560e01c8063119385621461005a5780635205f11214610083578063a6f07b29146100c5578063aa341cf1146100ee578063ac5558e51461010a578063c51562cb14610135575b600080fd5b34801561006657600080fd5b50610081600480360381019061007c9190610914565b61015e565b005b34801561008f57600080fd5b506100aa60048036038101906100a59190610914565b6102e9565b6040516100bc969594939291906109ac565b60405180910390f35b3480156100d157600080fd5b506100ec60048036038101906100e79190610914565b610372565b005b61010860048036038101906101039190610a39565b610578565b005b34801561011657600080fd5b5061011f6107b7565b60405161012c9190610a79565b60405180910390f35b34801561014157600080fd5b5061015c60048036038101906101579190610914565b6107bd565b005b60006001600083815260200190815260200160002090508060000160009054906101000a900473ffffffffffffffffffffffffffffffffffffffff1673ffffffffffffffffffffffffffffffffffffffff163373ffffffffffffffffffffffffffffffffffffffff1614610207576040517f08c379a00000000000000000000000000000000000000000000000000000000081526004016101fe90610af1565b60405180910390fd5b8060050160009054906101000a900460ff1615610259576040517f08c379a000000000000000000000000000000000000000000000000000000000815260040161025090610b5d565b60405180910390fd5b60018160050160006101000a81548160ff0219169083151502179055508060010160009054906101000a900473ffffffffffffffffffffffffffffffffffffffff1673ffffffffffffffffffffffffffffffffffffffff166108fc82600201549081150290604051600060405180830381858888f193505050501580156102e4573d6000803e3d6000fd5b505050565b60016020528060005260406000206000915090508060000160009054906101000a900473ffffffffffffffffffffffffffffffffffffffff16908060010160009054906101000a900473ffffffffffffffffffffffffffffffffffffffff16908060020154908060030154908060040154908060050160009054906101000a900460ff16905086565b60006001600083815260200190815260200160002090508060000160009054906101000a900473ffffffffffffffffffffffffffffffffffffffff1673ffffffffffffffffffffffffffffffffffffffff163373ffffffffffffffffffffffffffffffffffffffff16148061043657508060010160009054906101000a900473ffffffffffffffffffffffffffffffffffffffff1673ffffffffffffffffffffffffffffffffffffffff163373ffffffffffffffffffffffffffffffffffffffff16145b610475576040517f08c379a000000000000000000000000000000000000000000000000000000000815260040161046c90610bc9565b60405180910390fd5b8060000160009054906101000a900473ffffffffffffffffffffffffffffffffffffffff1673ffffffffffffffffffffffffffffffffffffffff166108fc82600201549081150290604051600060405180830381858888f193505050501580156104e3573d6000803e3d6000fd5b5060016000838152602001908152602001600020600080820160006101000a81549073ffffffffffffffffffffffffffffffffffffffff02191690556001820160006101000a81549073ffffffffffffffffffffffffffffffffffffffff02191690556002820160009055600382016000905560048201600090556005820160006101000a81549060ff021916905550505050565b66038d7ea4c680008161058b9190610c18565b3410156105cd576040517f08c379a00000000000000000000000000000000000000000000000000000000081526004016105c490610ca6565b60405180910390fd5b6000349050600066038d7ea4c68000836105e79190610c18565b826105f29190610cc6565b90506040518060c001604052803373ffffffffffffffffffffffffffffffffffffffff1681526020018573ffffffffffffffffffffffffffffffffffffffff16815260200183815260200184815260200182815260200160001515815250600160008054815260200190815260200160002060008201518160000160006101000a81548173ffffffffffffffffffffffffffffffffffffffff021916908373ffffffffffffffffffffffffffffffffffffffff16021790555060208201518160010160006101000a81548173ffffffffffffffffffffffffffffffffffffffff021916908373ffffffffffffffffffffffffffffffffffffffff16021790555060408201518160020155606082015181600301556080820151816004015560a08201518160050160006101000a81548160ff0219169083151502179055509050508373ffffffffffffffffffffffffffffffffffffffff163373ffffffffffffffffffffffffffffffffffffffff167f6e58c45baadc6c67d671117a9774ab2dbeb18d21752003b6295d40f469853f246000546040516107929190610a79565b60405180910390a36000808154809291906107ac90610cfa565b919050555050505050565b60005481565b60006001600083815260200190815260200160002090508060010160009054906101000a900473ffffffffffffffffffffffffffffffffffffffff1673ffffffffffffffffffffffffffffffffffffffff163373ffffffffffffffffffffffffffffffffffffffff1614610866576040517f08c379a000000000000000000000000000000000000000000000000000000000815260040161085d90610db4565b60405180910390fd5b8060000160009054906101000a900473ffffffffffffffffffffffffffffffffffffffff1673ffffffffffffffffffffffffffffffffffffffff166108fc82600401549081150290604051600060405180830381858888f193505050501580156108d4573d6000803e3d6000fd5b505050565b600080fd5b6000819050919050565b6108f1816108de565b81146108fc57600080fd5b50565b60008135905061090e816108e8565b92915050565b60006020828403121561092a576109296108d9565b5b6000610938848285016108ff565b91505092915050565b600073ffffffffffffffffffffffffffffffffffffffff82169050919050565b600061096c82610941565b9050919050565b61097c81610961565b82525050565b61098b816108de565b82525050565b60008115159050919050565b6109a681610991565b82525050565b600060c0820190506109c16000830189610973565b6109ce6020830188610973565b6109db6040830187610982565b6109e86060830186610982565b6109f56080830185610982565b610a0260a083018461099d565b979650505050505050565b610a1681610961565b8114610a2157600080fd5b50565b600081359050610a3381610a0d565b92915050565b60008060408385031215610a5057610a4f6108d9565b5b6000610a5e85828601610a24565b9250506020610a6f858286016108ff565b9150509250929050565b6000602082019050610a8e6000830184610982565b92915050565b600082825260208201905092915050565b7f4f6e6c792072696465722063616e206d61726b20617320636f6d706c65746564600082015250565b6000610adb602083610a94565b9150610ae682610aa5565b602082019050919050565b60006020820190508181036000830152610b0a81610ace565b9050919050565b7f5269646520616c726561647920636f6d706c6574656400000000000000000000600082015250565b6000610b47601683610a94565b9150610b5282610b11565b602082019050919050565b60006020820190508181036000830152610b7681610b3a565b9050919050565b7f4f6e6c79207269646572206f72206472697665722063616e2063616e63656c00600082015250565b6000610bb3601f83610a94565b9150610bbe82610b7d565b602082019050919050565b60006020820190508181036000830152610be281610ba6565b9050919050565b7f4e487b7100000000000000000000000000000000000000000000000000000000600052601160045260246000fd5b6000610c23826108de565b9150610c2e836108de565b9250828202610c3c816108de565b91508282048414831517610c5357610c52610be9565b5b5092915050565b7f496e73756666696369656e742066756e647320666f7220726964650000000000600082015250565b6000610c90601b83610a94565b9150610c9b82610c5a565b602082019050919050565b60006020820190508181036000830152610cbf81610c83565b9050919050565b6000610cd1826108de565b9150610cdc836108de565b9250828203905081811115610cf457610cf3610be9565b5b92915050565b6000610d05826108de565b91507fffffffffffffffffffffffffffffffffffffffffffffffffffffffffffffffff8203610d3757610d36610be9565b5b600182019050919050565b7f4f6e6c792061737369676e6564206472697665722063616e206163636570742060008201527f7468652072696465000000000000000000000000000000000000000000000000602082015250565b6000610d9e602883610a94565b9150610da982610d42565b604082019050919050565b60006020820190508181036000830152610dcd81610d91565b905091905056fea264697066735822122065c8081c8c12c963063858591659b4019cebf612a70fee7b9da2ce54301021fd64736f6c634300081e0033",
					"opcodes": "PUSH1 0x80 PUSH1 0x40 MSTORE PUSH6 0x5AF3107A4000 CALLVALUE LT ISZERO PUSH2 0x4D JUMPI PUSH1 0x40 MLOAD PUSH32 0x8C379A000000000000000000000000000000000000000000000000000000000 DUP2 MSTORE PUSH1 0x4 ADD PUSH2 0x44 SWAP1 PUSH2 0xD5 JUMP JUMPDEST PUSH1 0x40 MLOAD DUP1 SWAP2 SUB SWAP1 REVERT JUMPDEST PUSH2 0xF5 JUMP JUMPDEST PUSH1 0x0 DUP3 DUP3 MSTORE PUSH1 0x20 DUP3 ADD SWAP1 POP SWAP3 SWAP2 POP POP JUMP JUMPDEST PUSH32 0x4D696E696D756D206465706C6F796D656E7420636F737420697320302E303030 PUSH1 0x0 DUP3 ADD MSTORE PUSH32 0x3120657468657200000000000000000000000000000000000000000000000000 PUSH1 0x20 DUP3 ADD MSTORE POP JUMP JUMPDEST PUSH1 0x0 PUSH2 0xBF PUSH1 0x27 DUP4 PUSH2 0x52 JUMP JUMPDEST SWAP2 POP PUSH2 0xCA DUP3 PUSH2 0x63 JUMP JUMPDEST PUSH1 0x40 DUP3 ADD SWAP1 POP SWAP2 SWAP1 POP JUMP JUMPDEST PUSH1 0x0 PUSH1 0x20 DUP3 ADD SWAP1 POP DUP2 DUP2 SUB PUSH1 0x0 DUP4 ADD MSTORE PUSH2 0xEE DUP2 PUSH2 0xB2 JUMP JUMPDEST SWAP1 POP SWAP2 SWAP1 POP JUMP JUMPDEST PUSH2 0xE0A DUP1 PUSH2 0x104 PUSH1 0x0 CODECOPY PUSH1 0x0 RETURN INVALID PUSH1 0x80 PUSH1 0x40 MSTORE PUSH1 0x4 CALLDATASIZE LT PUSH2 0x55 JUMPI PUSH1 0x0 CALLDATALOAD PUSH1 0xE0 SHR DUP1 PUSH4 0x11938562 EQ PUSH2 0x5A JUMPI DUP1 PUSH4 0x5205F112 EQ PUSH2 0x83 JUMPI DUP1 PUSH4 0xA6F07B29 EQ PUSH2 0xC5 JUMPI DUP1 PUSH4 0xAA341CF1 EQ PUSH2 0xEE JUMPI DUP1 PUSH4 0xAC5558E5 EQ PUSH2 0x10A JUMPI DUP1 PUSH4 0xC51562CB EQ PUSH2 0x135 JUMPI JUMPDEST PUSH1 0x0 DUP1 REVERT JUMPDEST CALLVALUE DUP1 ISZERO PUSH2 0x66 JUMPI PUSH1 0x0 DUP1 REVERT JUMPDEST POP PUSH2 0x81 PUSH1 0x4 DUP1 CALLDATASIZE SUB DUP2 ADD SWAP1 PUSH2 0x7C SWAP2 SWAP1 PUSH2 0x914 JUMP JUMPDEST PUSH2 0x15E JUMP JUMPDEST STOP JUMPDEST CALLVALUE DUP1 ISZERO PUSH2 0x8F JUMPI PUSH1 0x0 DUP1 REVERT JUMPDEST POP PUSH2 0xAA PUSH1 0x4 DUP1 CALLDATASIZE SUB DUP2 ADD SWAP1 PUSH2 0xA5 SWAP2 SWAP1 PUSH2 0x914 JUMP JUMPDEST PUSH2 0x2E9 JUMP JUMPDEST PUSH1 0x40 MLOAD PUSH2 0xBC SWAP7 SWAP6 SWAP5 SWAP4 SWAP3 SWAP2 SWAP1 PUSH2 0x9AC JUMP JUMPDEST PUSH1 0x40 MLOAD DUP1 SWAP2 SUB SWAP1 RETURN JUMPDEST CALLVALUE DUP1 ISZERO PUSH2 0xD1 JUMPI PUSH1 0x0 DUP1 REVERT JUMPDEST POP PUSH2 0xEC PUSH1 0x4 DUP1 CALLDATASIZE SUB DUP2 ADD SWAP1 PUSH2 0xE7 SWAP2 SWAP1 PUSH2 0x914 JUMP JUMPDEST PUSH2 0x372 JUMP JUMPDEST STOP JUMPDEST PUSH2 0x108 PUSH1 0x4 DUP1 CALLDATASIZE SUB DUP2 ADD SWAP1 PUSH2 0x103 SWAP2 SWAP1 PUSH2 0xA39 JUMP JUMPDEST PUSH2 0x578 JUMP JUMPDEST STOP JUMPDEST CALLVALUE DUP1 ISZERO PUSH2 0x116 JUMPI PUSH1 0x0 DUP1 REVERT JUMPDEST POP PUSH2 0x11F PUSH2 0x7B7 JUMP JUMPDEST PUSH1 0x40 MLOAD PUSH2 0x12C SWAP2 SWAP1 PUSH2 0xA79 JUMP JUMPDEST PUSH1 0x40 MLOAD DUP1 SWAP2 SUB SWAP1 RETURN JUMPDEST CALLVALUE DUP1 ISZERO PUSH2 0x141 JUMPI PUSH1 0x0 DUP1 REVERT JUMPDEST POP PUSH2 0x15C PUSH1 0x4 DUP1 CALLDATASIZE SUB DUP2 ADD SWAP1 PUSH2 0x157 SWAP2 SWAP1 PUSH2 0x914 JUMP JUMPDEST PUSH2 0x7BD JUMP JUMPDEST STOP JUMPDEST PUSH1 0x0 PUSH1 0x1 PUSH1 0x0 DUP4 DUP2 MSTORE PUSH1 0x20 ADD SWAP1 DUP2 MSTORE PUSH1 0x20 ADD PUSH1 0x0 KECCAK256 SWAP1 POP DUP1 PUSH1 0x0 ADD PUSH1 0x0 SWAP1 SLOAD SWAP1 PUSH2 0x100 EXP SWAP1 DIV PUSH20 0xFFFFFFFFFFFFFFFFFFFFFFFFFFFFFFFFFFFFFFFF AND PUSH20 0xFFFFFFFFFFFFFFFFFFFFFFFFFFFFFFFFFFFFFFFF AND CALLER PUSH20 0xFFFFFFFFFFFFFFFFFFFFFFFFFFFFFFFFFFFFFFFF AND EQ PUSH2 0x207 JUMPI PUSH1 0x40 MLOAD PUSH32 0x8C379A000000000000000000000000000000000000000000000000000000000 DUP2 MSTORE PUSH1 0x4 ADD PUSH2 0x1FE SWAP1 PUSH2 0xAF1 JUMP JUMPDEST PUSH1 0x40 MLOAD DUP1 SWAP2 SUB SWAP1 REVERT JUMPDEST DUP1 PUSH1 0x5 ADD PUSH1 0x0 SWAP1 SLOAD SWAP1 PUSH2 0x100 EXP SWAP1 DIV PUSH1 0xFF AND ISZERO PUSH2 0x259 JUMPI PUSH1 0x40 MLOAD PUSH32 0x8C379A000000000000000000000000000000000000000000000000000000000 DUP2 MSTORE PUSH1 0x4 ADD PUSH2 0x250 SWAP1 PUSH2 0xB5D JUMP JUMPDEST PUSH1 0x40 MLOAD DUP1 SWAP2 SUB SWAP1 REVERT JUMPDEST PUSH1 0x1 DUP2 PUSH1 0x5 ADD PUSH1 0x0 PUSH2 0x100 EXP DUP2 SLOAD DUP2 PUSH1 0xFF MUL NOT AND SWAP1 DUP4 ISZERO ISZERO MUL OR SWAP1 SSTORE POP DUP1 PUSH1 0x1 ADD PUSH1 0x0 SWAP1 SLOAD SWAP1 PUSH2 0x100 EXP SWAP1 DIV PUSH20 0xFFFFFFFFFFFFFFFFFFFFFFFFFFFFFFFFFFFFFFFF AND PUSH20 0xFFFFFFFFFFFFFFFFFFFFFFFFFFFFFFFFFFFFFFFF AND PUSH2 0x8FC DUP3 PUSH1 0x2 ADD SLOAD SWAP1 DUP2 ISZERO MUL SWAP1 PUSH1 0x40 MLOAD PUSH1 0x0 PUSH1 0x40 MLOAD DUP1 DUP4 SUB DUP2 DUP6 DUP9 DUP9 CALL SWAP4 POP POP POP POP ISZERO DUP1 ISZERO PUSH2 0x2E4 JUMPI RETURNDATASIZE PUSH1 0x0 DUP1 RETURNDATACOPY RETURNDATASIZE PUSH1 0x0 REVERT JUMPDEST POP POP POP JUMP JUMPDEST PUSH1 0x1 PUSH1 0x20 MSTORE DUP1 PUSH1 0x0 MSTORE PUSH1 0x40 PUSH1 0x0 KECCAK256 PUSH1 0x0 SWAP2 POP SWAP1 POP DUP1 PUSH1 0x0 ADD PUSH1 0x0 SWAP1 SLOAD SWAP1 PUSH2 0x100 EXP SWAP1 DIV PUSH20 0xFFFFFFFFFFFFFFFFFFFFFFFFFFFFFFFFFFFFFFFF AND SWAP1 DUP1 PUSH1 0x1 ADD PUSH1 0x0 SWAP1 SLOAD SWAP1 PUSH2 0x100 EXP SWAP1 DIV PUSH20 0xFFFFFFFFFFFFFFFFFFFFFFFFFFFFFFFFFFFFFFFF AND SWAP1 DUP1 PUSH1 0x2 ADD SLOAD SWAP1 DUP1 PUSH1 0x3 ADD SLOAD SWAP1 DUP1 PUSH1 0x4 ADD SLOAD SWAP1 DUP1 PUSH1 0x5 ADD PUSH1 0x0 SWAP1 SLOAD SWAP1 PUSH2 0x100 EXP SWAP1 DIV PUSH1 0xFF AND SWAP1 POP DUP7 JUMP JUMPDEST PUSH1 0x0 PUSH1 0x1 PUSH1 0x0 DUP4 DUP2 MSTORE PUSH1 0x20 ADD SWAP1 DUP2 MSTORE PUSH1 0x20 ADD PUSH1 0x0 KECCAK256 SWAP1 POP DUP1 PUSH1 0x0 ADD PUSH1 0x0 SWAP1 SLOAD SWAP1 PUSH2 0x100 EXP SWAP1 DIV PUSH20 0xFFFFFFFFFFFFFFFFFFFFFFFFFFFFFFFFFFFFFFFF AND PUSH20 0xFFFFFFFFFFFFFFFFFFFFFFFFFFFFFFFFFFFFFFFF AND CALLER PUSH20 0xFFFFFFFFFFFFFFFFFFFFFFFFFFFFFFFFFFFFFFFF AND EQ DUP1 PUSH2 0x436 JUMPI POP DUP1 PUSH1 0x1 ADD PUSH1 0x0 SWAP1 SLOAD SWAP1 PUSH2 0x100 EXP SWAP1 DIV PUSH20 0xFFFFFFFFFFFFFFFFFFFFFFFFFFFFFFFFFFFFFFFF AND PUSH20 0xFFFFFFFFFFFFFFFFFFFFFFFFFFFFFFFFFFFFFFFF AND CALLER PUSH20 0xFFFFFFFFFFFFFFFFFFFFFFFFFFFFFFFFFFFFFFFF AND EQ JUMPDEST PUSH2 0x475 JUMPI PUSH1 0x40 MLOAD PUSH32 0x8C379A000000000000000000000000000000000000000000000000000000000 DUP2 MSTORE PUSH1 0x4 ADD PUSH2 0x46C SWAP1 PUSH2 0xBC9 JUMP JUMPDEST PUSH1 0x40 MLOAD DUP1 SWAP2 SUB SWAP1 REVERT JUMPDEST DUP1 PUSH1 0x0 ADD PUSH1 0x0 SWAP1 SLOAD SWAP1 PUSH2 0x100 EXP SWAP1 DIV PUSH20 0xFFFFFFFFFFFFFFFFFFFFFFFFFFFFFFFFFFFFFFFF AND PUSH20 0xFFFFFFFFFFFFFFFFFFFFFFFFFFFFFFFFFFFFFFFF AND PUSH2 0x8FC DUP3 PUSH1 0x2 ADD SLOAD SWAP1 DUP2 ISZERO MUL SWAP1 PUSH1 0x40 MLOAD PUSH1 0x0 PUSH1 0x40 MLOAD DUP1 DUP4 SUB DUP2 DUP6 DUP9 DUP9 CALL SWAP4 POP POP POP POP ISZERO DUP1 ISZERO PUSH2 0x4E3 JUMPI RETURNDATASIZE PUSH1 0x0 DUP1 RETURNDATACOPY RETURNDATASIZE PUSH1 0x0 REVERT JUMPDEST POP PUSH1 0x1 PUSH1 0x0 DUP4 DUP2 MSTORE PUSH1 0x20 ADD SWAP1 DUP2 MSTORE PUSH1 0x20 ADD PUSH1 0x0 KECCAK256 PUSH1 0x0 DUP1 DUP3 ADD PUSH1 0x0 PUSH2 0x100 EXP DUP2 SLOAD SWAP1 PUSH20 0xFFFFFFFFFFFFFFFFFFFFFFFFFFFFFFFFFFFFFFFF MUL NOT AND SWAP1 SSTORE PUSH1 0x1 DUP3 ADD PUSH1 0x0 PUSH2 0x100 EXP DUP2 SLOAD SWAP1 PUSH20 0xFFFFFFFFFFFFFFFFFFFFFFFFFFFFFFFFFFFFFFFF MUL NOT AND SWAP1 SSTORE PUSH1 0x2 DUP3 ADD PUSH1 0x0 SWAP1 SSTORE PUSH1 0x3 DUP3 ADD PUSH1 0x0 SWAP1 SSTORE PUSH1 0x4 DUP3 ADD PUSH1 0x0 SWAP1 SSTORE PUSH1 0x5 DUP3 ADD PUSH1 0x0 PUSH2 0x100 EXP DUP2 SLOAD SWAP1 PUSH1 0xFF MUL NOT AND SWAP1 SSTORE POP POP POP POP JUMP JUMPDEST PUSH7 0x38D7EA4C68000 DUP2 PUSH2 0x58B SWAP2 SWAP1 PUSH2 0xC18 JUMP JUMPDEST CALLVALUE LT ISZERO PUSH2 0x5CD JUMPI PUSH1 0x40 MLOAD PUSH32 0x8C379A000000000000000000000000000000000000000000000000000000000 DUP2 MSTORE PUSH1 0x4 ADD PUSH2 0x5C4 SWAP1 PUSH2 0xCA6 JUMP JUMPDEST PUSH1 0x40 MLOAD DUP1 SWAP2 SUB SWAP1 REVERT JUMPDEST PUSH1 0x0 CALLVALUE SWAP1 POP PUSH1 0x0 PUSH7 0x38D7EA4C68000 DUP4 PUSH2 0x5E7 SWAP2 SWAP1 PUSH2 0xC18 JUMP JUMPDEST DUP3 PUSH2 0x5F2 SWAP2 SWAP1 PUSH2 0xCC6 JUMP JUMPDEST SWAP1 POP PUSH1 0x40 MLOAD DUP1 PUSH1 0xC0 ADD PUSH1 0x40 MSTORE DUP1 CALLER PUSH20 0xFFFFFFFFFFFFFFFFFFFFFFFFFFFFFFFFFFFFFFFF AND DUP2 MSTORE PUSH1 0x20 ADD DUP6 PUSH20 0xFFFFFFFFFFFFFFFFFFFFFFFFFFFFFFFFFFFFFFFF AND DUP2 MSTORE PUSH1 0x20 ADD DUP4 DUP2 MSTORE PUSH1 0x20 ADD DUP5 DUP2 MSTORE PUSH1 0x20 ADD DUP3 DUP2 MSTORE PUSH1 0x20 ADD PUSH1 0x0 ISZERO ISZERO DUP2 MSTORE POP PUSH1 0x1 PUSH1 0x0 DUP1 SLOAD DUP2 MSTORE PUSH1 0x20 ADD SWAP1 DUP2 MSTORE PUSH1 0x20 ADD PUSH1 0x0 KECCAK256 PUSH1 0x0 DUP3 ADD MLOAD DUP2 PUSH1 0x0 ADD PUSH1 0x0 PUSH2 0x100 EXP DUP2 SLOAD DUP2 PUSH20 0xFFFFFFFFFFFFFFFFFFFFFFFFFFFFFFFFFFFFFFFF MUL NOT AND SWAP1 DUP4 PUSH20 0xFFFFFFFFFFFFFFFFFFFFFFFFFFFFFFFFFFFFFFFF AND MUL OR SWAP1 SSTORE POP PUSH1 0x20 DUP3 ADD MLOAD DUP2 PUSH1 0x1 ADD PUSH1 0x0 PUSH2 0x100 EXP DUP2 SLOAD DUP2 PUSH20 0xFFFFFFFFFFFFFFFFFFFFFFFFFFFFFFFFFFFFFFFF MUL NOT AND SWAP1 DUP4 PUSH20 0xFFFFFFFFFFFFFFFFFFFFFFFFFFFFFFFFFFFFFFFF AND MUL OR SWAP1 SSTORE POP PUSH1 0x40 DUP3 ADD MLOAD DUP2 PUSH1 0x2 ADD SSTORE PUSH1 0x60 DUP3 ADD MLOAD DUP2 PUSH1 0x3 ADD SSTORE PUSH1 0x80 DUP3 ADD MLOAD DUP2 PUSH1 0x4 ADD SSTORE PUSH1 0xA0 DUP3 ADD MLOAD DUP2 PUSH1 0x5 ADD PUSH1 0x0 PUSH2 0x100 EXP DUP2 SLOAD DUP2 PUSH1 0xFF MUL NOT AND SWAP1 DUP4 ISZERO ISZERO MUL OR SWAP1 SSTORE POP SWAP1 POP POP DUP4 PUSH20 0xFFFFFFFFFFFFFFFFFFFFFFFFFFFFFFFFFFFFFFFF AND CALLER PUSH20 0xFFFFFFFFFFFFFFFFFFFFFFFFFFFFFFFFFFFFFFFF AND PUSH32 0x6E58C45BAADC6C67D671117A9774AB2DBEB18D21752003B6295D40F469853F24 PUSH1 0x0 SLOAD PUSH1 0x40 MLOAD PUSH2 0x792 SWAP2 SWAP1 PUSH2 0xA79 JUMP JUMPDEST PUSH1 0x40 MLOAD DUP1 SWAP2 SUB SWAP1 LOG3 PUSH1 0x0 DUP1 DUP2 SLOAD DUP1 SWAP3 SWAP2 SWAP1 PUSH2 0x7AC SWAP1 PUSH2 0xCFA JUMP JUMPDEST SWAP2 SWAP1 POP SSTORE POP POP POP POP POP JUMP JUMPDEST PUSH1 0x0 SLOAD DUP2 JUMP JUMPDEST PUSH1 0x0 PUSH1 0x1 PUSH1 0x0 DUP4 DUP2 MSTORE PUSH1 0x20 ADD SWAP1 DUP2 MSTORE PUSH1 0x20 ADD PUSH1 0x0 KECCAK256 SWAP1 POP DUP1 PUSH1 0x1 ADD PUSH1 0x0 SWAP1 SLOAD SWAP1 PUSH2 0x100 EXP SWAP1 DIV PUSH20 0xFFFFFFFFFFFFFFFFFFFFFFFFFFFFFFFFFFFFFFFF AND PUSH20 0xFFFFFFFFFFFFFFFFFFFFFFFFFFFFFFFFFFFFFFFF AND CALLER PUSH20 0xFFFFFFFFFFFFFFFFFFFFFFFFFFFFFFFFFFFFFFFF AND EQ PUSH2 0x866 JUMPI PUSH1 0x40 MLOAD PUSH32 0x8C379A000000000000000000000000000000000000000000000000000000000 DUP2 MSTORE PUSH1 0x4 ADD PUSH2 0x85D SWAP1 PUSH2 0xDB4 JUMP JUMPDEST PUSH1 0x40 MLOAD DUP1 SWAP2 SUB SWAP1 REVERT JUMPDEST DUP1 PUSH1 0x0 ADD PUSH1 0x0 SWAP1 SLOAD SWAP1 PUSH2 0x100 EXP SWAP1 DIV PUSH20 0xFFFFFFFFFFFFFFFFFFFFFFFFFFFFFFFFFFFFFFFF AND PUSH20 0xFFFFFFFFFFFFFFFFFFFFFFFFFFFFFFFFFFFFFFFF AND PUSH2 0x8FC DUP3 PUSH1 0x4 ADD SLOAD SWAP1 DUP2 ISZERO MUL SWAP1 PUSH1 0x40 MLOAD PUSH1 0x0 PUSH1 0x40 MLOAD DUP1 DUP4 SUB DUP2 DUP6 DUP9 DUP9 CALL SWAP4 POP POP POP POP ISZERO DUP1 ISZERO PUSH2 0x8D4 JUMPI RETURNDATASIZE PUSH1 0x0 DUP1 RETURNDATACOPY RETURNDATASIZE PUSH1 0x0 REVERT JUMPDEST POP POP POP JUMP JUMPDEST PUSH1 0x0 DUP1 REVERT JUMPDEST PUSH1 0x0 DUP2 SWAP1 POP SWAP2 SWAP1 POP JUMP JUMPDEST PUSH2 0x8F1 DUP2 PUSH2 0x8DE JUMP JUMPDEST DUP2 EQ PUSH2 0x8FC JUMPI PUSH1 0x0 DUP1 REVERT JUMPDEST POP JUMP JUMPDEST PUSH1 0x0 DUP2 CALLDATALOAD SWAP1 POP PUSH2 0x90E DUP2 PUSH2 0x8E8 JUMP JUMPDEST SWAP3 SWAP2 POP POP JUMP JUMPDEST PUSH1 0x0 PUSH1 0x20 DUP3 DUP5 SUB SLT ISZERO PUSH2 0x92A JUMPI PUSH2 0x929 PUSH2 0x8D9 JUMP JUMPDEST JUMPDEST PUSH1 0x0 PUSH2 0x938 DUP5 DUP3 DUP6 ADD PUSH2 0x8FF JUMP JUMPDEST SWAP2 POP POP SWAP3 SWAP2 POP POP JUMP JUMPDEST PUSH1 0x0 PUSH20 0xFFFFFFFFFFFFFFFFFFFFFFFFFFFFFFFFFFFFFFFF DUP3 AND SWAP1 POP SWAP2 SWAP1 POP JUMP JUMPDEST PUSH1 0x0 PUSH2 0x96C DUP3 PUSH2 0x941 JUMP JUMPDEST SWAP1 POP SWAP2 SWAP1 POP JUMP JUMPDEST PUSH2 0x97C DUP2 PUSH2 0x961 JUMP JUMPDEST DUP3 MSTORE POP POP JUMP JUMPDEST PUSH2 0x98B DUP2 PUSH2 0x8DE JUMP JUMPDEST DUP3 MSTORE POP POP JUMP JUMPDEST PUSH1 0x0 DUP2 ISZERO ISZERO SWAP1 POP SWAP2 SWAP1 POP JUMP JUMPDEST PUSH2 0x9A6 DUP2 PUSH2 0x991 JUMP JUMPDEST DUP3 MSTORE POP POP JUMP JUMPDEST PUSH1 0x0 PUSH1 0xC0 DUP3 ADD SWAP1 POP PUSH2 0x9C1 PUSH1 0x0 DUP4 ADD DUP10 PUSH2 0x973 JUMP JUMPDEST PUSH2 0x9CE PUSH1 0x20 DUP4 ADD DUP9 PUSH2 0x973 JUMP JUMPDEST PUSH2 0x9DB PUSH1 0x40 DUP4 ADD DUP8 PUSH2 0x982 JUMP JUMPDEST PUSH2 0x9E8 PUSH1 0x60 DUP4 ADD DUP7 PUSH2 0x982 JUMP JUMPDEST PUSH2 0x9F5 PUSH1 0x80 DUP4 ADD DUP6 PUSH2 0x982 JUMP JUMPDEST PUSH2 0xA02 PUSH1 0xA0 DUP4 ADD DUP5 PUSH2 0x99D JUMP JUMPDEST SWAP8 SWAP7 POP POP POP POP POP POP POP JUMP JUMPDEST PUSH2 0xA16 DUP2 PUSH2 0x961 JUMP JUMPDEST DUP2 EQ PUSH2 0xA21 JUMPI PUSH1 0x0 DUP1 REVERT JUMPDEST POP JUMP JUMPDEST PUSH1 0x0 DUP2 CALLDATALOAD SWAP1 POP PUSH2 0xA33 DUP2 PUSH2 0xA0D JUMP JUMPDEST SWAP3 SWAP2 POP POP JUMP JUMPDEST PUSH1 0x0 DUP1 PUSH1 0x40 DUP4 DUP6 SUB SLT ISZERO PUSH2 0xA50 JUMPI PUSH2 0xA4F PUSH2 0x8D9 JUMP JUMPDEST JUMPDEST PUSH1 0x0 PUSH2 0xA5E DUP6 DUP3 DUP7 ADD PUSH2 0xA24 JUMP JUMPDEST SWAP3 POP POP PUSH1 0x20 PUSH2 0xA6F DUP6 DUP3 DUP7 ADD PUSH2 0x8FF JUMP JUMPDEST SWAP2 POP POP SWAP3 POP SWAP3 SWAP1 POP JUMP JUMPDEST PUSH1 0x0 PUSH1 0x20 DUP3 ADD SWAP1 POP PUSH2 0xA8E PUSH1 0x0 DUP4 ADD DUP5 PUSH2 0x982 JUMP JUMPDEST SWAP3 SWAP2 POP POP JUMP JUMPDEST PUSH1 0x0 DUP3 DUP3 MSTORE PUSH1 0x20 DUP3 ADD SWAP1 POP SWAP3 SWAP2 POP POP JUMP JUMPDEST PUSH32 0x4F6E6C792072696465722063616E206D61726B20617320636F6D706C65746564 PUSH1 0x0 DUP3 ADD MSTORE POP JUMP JUMPDEST PUSH1 0x0 PUSH2 0xADB PUSH1 0x20 DUP4 PUSH2 0xA94 JUMP JUMPDEST SWAP2 POP PUSH2 0xAE6 DUP3 PUSH2 0xAA5 JUMP JUMPDEST PUSH1 0x20 DUP3 ADD SWAP1 POP SWAP2 SWAP1 POP JUMP JUMPDEST PUSH1 0x0 PUSH1 0x20 DUP3 ADD SWAP1 POP DUP2 DUP2 SUB PUSH1 0x0 DUP4 ADD MSTORE PUSH2 0xB0A DUP2 PUSH2 0xACE JUMP JUMPDEST SWAP1 POP SWAP2 SWAP1 POP JUMP JUMPDEST PUSH32 0x5269646520616C726561647920636F6D706C6574656400000000000000000000 PUSH1 0x0 DUP3 ADD MSTORE POP JUMP JUMPDEST PUSH1 0x0 PUSH2 0xB47 PUSH1 0x16 DUP4 PUSH2 0xA94 JUMP JUMPDEST SWAP2 POP PUSH2 0xB52 DUP3 PUSH2 0xB11 JUMP JUMPDEST PUSH1 0x20 DUP3 ADD SWAP1 POP SWAP2 SWAP1 POP JUMP JUMPDEST PUSH1 0x0 PUSH1 0x20 DUP3 ADD SWAP1 POP DUP2 DUP2 SUB PUSH1 0x0 DUP4 ADD MSTORE PUSH2 0xB76 DUP2 PUSH2 0xB3A JUMP JUMPDEST SWAP1 POP SWAP2 SWAP1 POP JUMP JUMPDEST PUSH32 0x4F6E6C79207269646572206F72206472697665722063616E2063616E63656C00 PUSH1 0x0 DUP3 ADD MSTORE POP JUMP JUMPDEST PUSH1 0x0 PUSH2 0xBB3 PUSH1 0x1F DUP4 PUSH2 0xA94 JUMP JUMPDEST SWAP2 POP PUSH2 0xBBE DUP3 PUSH2 0xB7D JUMP JUMPDEST PUSH1 0x20 DUP3 ADD SWAP1 POP SWAP2 SWAP1 POP JUMP JUMPDEST PUSH1 0x0 PUSH1 0x20 DUP3 ADD SWAP1 POP DUP2 DUP2 SUB PUSH1 0x0 DUP4 ADD MSTORE PUSH2 0xBE2 DUP2 PUSH2 0xBA6 JUMP JUMPDEST SWAP1 POP SWAP2 SWAP1 POP JUMP JUMPDEST PUSH32 0x4E487B7100000000000000000000000000000000000000000000000000000000 PUSH1 0x0 MSTORE PUSH1 0x11 PUSH1 0x4 MSTORE PUSH1 0x24 PUSH1 0x0 REVERT JUMPDEST PUSH1 0x0 PUSH2 0xC23 DUP3 PUSH2 0x8DE JUMP JUMPDEST SWAP2 POP PUSH2 0xC2E DUP4 PUSH2 0x8DE JUMP JUMPDEST SWAP3 POP DUP3 DUP3 MUL PUSH2 0xC3C DUP2 PUSH2 0x8DE JUMP JUMPDEST SWAP2 POP DUP3 DUP3 DIV DUP5 EQ DUP4 ISZERO OR PUSH2 0xC53 JUMPI PUSH2 0xC52 PUSH2 0xBE9 JUMP JUMPDEST JUMPDEST POP SWAP3 SWAP2 POP POP JUMP JUMPDEST PUSH32 0x496E73756666696369656E742066756E647320666F7220726964650000000000 PUSH1 0x0 DUP3 ADD MSTORE POP JUMP JUMPDEST PUSH1 0x0 PUSH2 0xC90 PUSH1 0x1B DUP4 PUSH2 0xA94 JUMP JUMPDEST SWAP2 POP PUSH2 0xC9B DUP3 PUSH2 0xC5A JUMP JUMPDEST PUSH1 0x20 DUP3 ADD SWAP1 POP SWAP2 SWAP1 POP JUMP JUMPDEST PUSH1 0x0 PUSH1 0x20 DUP3 ADD SWAP1 POP DUP2 DUP2 SUB PUSH1 0x0 DUP4 ADD MSTORE PUSH2 0xCBF DUP2 PUSH2 0xC83 JUMP JUMPDEST SWAP1 POP SWAP2 SWAP1 POP JUMP JUMPDEST PUSH1 0x0 PUSH2 0xCD1 DUP3 PUSH2 0x8DE JUMP JUMPDEST SWAP2 POP PUSH2 0xCDC DUP4 PUSH2 0x8DE JUMP JUMPDEST SWAP3 POP DUP3 DUP3 SUB SWAP1 POP DUP2 DUP2 GT ISZERO PUSH2 0xCF4 JUMPI PUSH2 0xCF3 PUSH2 0xBE9 JUMP JUMPDEST JUMPDEST SWAP3 SWAP2 POP POP JUMP JUMPDEST PUSH1 0x0 PUSH2 0xD05 DUP3 PUSH2 0x8DE JUMP JUMPDEST SWAP2 POP PUSH32 0xFFFFFFFFFFFFFFFFFFFFFFFFFFFFFFFFFFFFFFFFFFFFFFFFFFFFFFFFFFFFFFFF DUP3 SUB PUSH2 0xD37 JUMPI PUSH2 0xD36 PUSH2 0xBE9 JUMP JUMPDEST JUMPDEST PUSH1 0x1 DUP3 ADD SWAP1 POP SWAP2 SWAP1 POP JUMP JUMPDEST PUSH32 0x4F6E6C792061737369676E6564206472697665722063616E2061636365707420 PUSH1 0x0 DUP3 ADD MSTORE PUSH32 0x7468652072696465000000000000000000000000000000000000000000000000 PUSH1 0x20 DUP3 ADD MSTORE POP JUMP JUMPDEST PUSH1 0x0 PUSH2 0xD9E PUSH1 0x28 DUP4 PUSH2 0xA94 JUMP JUMPDEST SWAP2 POP PUSH2 0xDA9 DUP3 PUSH2 0xD42 JUMP JUMPDEST PUSH1 0x40 DUP3 ADD SWAP1 POP SWAP2 SWAP1 POP JUMP JUMPDEST PUSH1 0x0 PUSH1 0x20 DUP3 ADD SWAP1 POP DUP2 DUP2 SUB PUSH1 0x0 DUP4 ADD MSTORE PUSH2 0xDCD DUP2 PUSH2 0xD91 JUMP JUMPDEST SWAP1 POP SWAP2 SWAP1 POP JUMP INVALID LOG2 PUSH5 0x6970667358 0x22 SLT KECCAK256 PUSH6 0xC8081C8C12C9 PUSH4 0x6385859 AND MSIZE 0xB4 ADD SWAP13 0xEB 0xF6 SLT 0xA7 0xF RETURNCONTRACT 0x7B SWAP14 LOG2 0xCE SLOAD ADDRESS LT 0x21 REVERT PUSH5 0x736F6C6343 STOP ADDMOD 0x1E STOP CALLER "
				},
				"gasEstimates": {
					"creation": {
						"codeDepositCost": "718800",
						"executionCost": "766",
						"totalCost": "719566"
					},
					"external": {
						"acceptRide(uint256)": "infinite",
						"cancelRide(uint256)": "infinite",
						"requestRide(address,uint256)": "infinite",
						"rideCompleted(uint256)": "infinite",
						"rideId()": "2495",
						"rides(uint256)": "infinite"
					}
				},
				"methodIdentifiers": {
					"acceptRide(uint256)": "c51562cb",
					"cancelRide(uint256)": "a6f07b29",
					"requestRide(address,uint256)": "aa341cf1",
					"rideCompleted(uint256)": "11938562",
					"rideId()": "ac5558e5",
					"rides(uint256)": "5205f112"
				}
			},
			"storageLayout": {
				"storage": [
					{
						"astId": 3,
						"contract": "RideShare.sol:Rideshare",
						"label": "rideId",
						"offset": 0,
						"slot": "0",
						"type": "t_uint256"
					},
					{
						"astId": 21,
						"contract": "RideShare.sol:Rideshare",
						"label": "rides",
						"offset": 0,
						"slot": "1",
						"type": "t_mapping(t_uint256,t_struct(Ride)16_storage)"
					}
				],
				"types": {
					"t_address_payable": {
						"encoding": "inplace",
						"label": "address payable",
						"numberOfBytes": "20"
					},
					"t_bool": {
						"encoding": "inplace",
						"label": "bool",
						"numberOfBytes": "1"
					},
					"t_mapping(t_uint256,t_struct(Ride)16_storage)": {
						"encoding": "mapping",
						"key": "t_uint256",
						"label": "mapping(uint256 => struct Rideshare.Ride)",
						"numberOfBytes": "32",
						"value": "t_struct(Ride)16_storage"
					},
					"t_struct(Ride)16_storage": {
						"encoding": "inplace",
						"label": "struct Rideshare.Ride",
						"members": [
							{
								"astId": 5,
								"contract": "RideShare.sol:Rideshare",
								"label": "rider",
								"offset": 0,
								"slot": "0",
								"type": "t_address_payable"
							},
							{
								"astId": 7,
								"contract": "RideShare.sol:Rideshare",
								"label": "driver",
								"offset": 0,
								"slot": "1",
								"type": "t_address_payable"
							},
							{
								"astId": 9,
								"contract": "RideShare.sol:Rideshare",
								"label": "price",
								"offset": 0,
								"slot": "2",
								"type": "t_uint256"
							},
							{
								"astId": 11,
								"contract": "RideShare.sol:Rideshare",
								"label": "distance",
								"offset": 0,
								"slot": "3",
								"type": "t_uint256"
							},
							{
								"astId": 13,
								"contract": "RideShare.sol:Rideshare",
								"label": "cashBack",
								"offset": 0,
								"slot": "4",
								"type": "t_uint256"
							},
							{
								"astId": 15,
								"contract": "RideShare.sol:Rideshare",
								"label": "isCompleted",
								"offset": 0,
								"slot": "5",
								"type": "t_bool"
							}
						],
						"numberOfBytes": "192"
					},
					"t_uint256": {
						"encoding": "inplace",
						"label": "uint256",
						"numberOfBytes": "32"
					}
				}
			},
			"userdoc": {
				"kind": "user",
				"methods": {},
				"version": 1
			}
		}
	}
}